{
  "contracts/Lobby.sol": {
    "Lobby": {
      "abi": [
        {
          "inputs": [
            {
              "internalType": "address",
              "name": "feeReceiver_",
              "type": "address"
            }
          ],
          "stateMutability": "nonpayable",
          "type": "constructor"
        },
        {
          "inputs": [],
          "name": "AccessControlBadConfirmation",
          "type": "error"
        },
        {
          "inputs": [
            {
              "internalType": "address",
              "name": "account",
              "type": "address"
            },
            {
              "internalType": "bytes32",
              "name": "neededRole",
              "type": "bytes32"
            }
          ],
          "name": "AccessControlUnauthorizedAccount",
          "type": "error"
        },
        {
          "anonymous": false,
          "inputs": [
            {
              "indexed": true,
              "internalType": "address",
              "name": "player",
              "type": "address"
            }
          ],
          "name": "Deposit",
          "type": "event"
        },
        {
          "anonymous": false,
          "inputs": [
            {
              "indexed": true,
              "internalType": "address",
              "name": "winner",
              "type": "address"
            },
            {
              "indexed": true,
              "internalType": "address",
              "name": "loser",
              "type": "address"
            },
            {
              "indexed": true,
              "internalType": "uint256",
              "name": "matchId",
              "type": "uint256"
            }
          ],
          "name": "End",
          "type": "event"
        },
        {
          "anonymous": false,
          "inputs": [
            {
              "indexed": true,
              "internalType": "bytes32",
              "name": "role",
              "type": "bytes32"
            },
            {
              "indexed": true,
              "internalType": "bytes32",
              "name": "previousAdminRole",
              "type": "bytes32"
            },
            {
              "indexed": true,
              "internalType": "bytes32",
              "name": "newAdminRole",
              "type": "bytes32"
            }
          ],
          "name": "RoleAdminChanged",
          "type": "event"
        },
        {
          "anonymous": false,
          "inputs": [
            {
              "indexed": true,
              "internalType": "bytes32",
              "name": "role",
              "type": "bytes32"
            },
            {
              "indexed": true,
              "internalType": "address",
              "name": "account",
              "type": "address"
            },
            {
              "indexed": true,
              "internalType": "address",
              "name": "sender",
              "type": "address"
            }
          ],
          "name": "RoleGranted",
          "type": "event"
        },
        {
          "anonymous": false,
          "inputs": [
            {
              "indexed": true,
              "internalType": "bytes32",
              "name": "role",
              "type": "bytes32"
            },
            {
              "indexed": true,
              "internalType": "address",
              "name": "account",
              "type": "address"
            },
            {
              "indexed": true,
              "internalType": "address",
              "name": "sender",
              "type": "address"
            }
          ],
          "name": "RoleRevoked",
          "type": "event"
        },
        {
          "anonymous": false,
          "inputs": [
            {
              "indexed": true,
              "internalType": "address",
              "name": "player1",
              "type": "address"
            },
            {
              "indexed": true,
              "internalType": "address",
              "name": "player2",
              "type": "address"
            },
            {
              "indexed": true,
              "internalType": "uint256",
              "name": "matchId",
              "type": "uint256"
            }
          ],
          "name": "Start",
          "type": "event"
        },
        {
          "anonymous": false,
          "inputs": [
            {
              "indexed": true,
              "internalType": "address",
              "name": "player",
              "type": "address"
            }
          ],
          "name": "Withdraw",
          "type": "event"
        },
        {
          "inputs": [],
          "name": "DEFAULT_ADMIN_ROLE",
          "outputs": [
            {
              "internalType": "bytes32",
              "name": "",
              "type": "bytes32"
            }
          ],
          "stateMutability": "view",
          "type": "function"
        },
        {
          "inputs": [],
          "name": "SERVER_ROLE",
          "outputs": [
            {
              "internalType": "bytes32",
              "name": "",
              "type": "bytes32"
            }
          ],
          "stateMutability": "view",
          "type": "function"
        },
        {
          "inputs": [],
          "name": "burnAmount",
          "outputs": [
            {
              "internalType": "uint256",
              "name": "",
              "type": "uint256"
            }
          ],
          "stateMutability": "view",
          "type": "function"
        },
        {
          "inputs": [],
          "name": "deposit",
          "outputs": [],
          "stateMutability": "nonpayable",
          "type": "function"
        },
        {
          "inputs": [],
          "name": "depositAmount",
          "outputs": [
            {
              "internalType": "uint256",
              "name": "",
              "type": "uint256"
            }
          ],
          "stateMutability": "view",
          "type": "function"
        },
        {
          "inputs": [
            {
              "internalType": "uint256",
              "name": "",
              "type": "uint256"
            }
          ],
          "name": "deposits",
          "outputs": [
            {
              "internalType": "address",
              "name": "",
              "type": "address"
            }
          ],
          "stateMutability": "view",
          "type": "function"
        },
        {
          "inputs": [],
          "name": "feeAmount",
          "outputs": [
            {
              "internalType": "uint256",
              "name": "",
              "type": "uint256"
            }
          ],
          "stateMutability": "view",
          "type": "function"
        },
        {
          "inputs": [],
          "name": "feeReceiver",
          "outputs": [
            {
              "internalType": "address",
              "name": "",
              "type": "address"
            }
          ],
          "stateMutability": "view",
          "type": "function"
        },
        {
          "inputs": [
            {
              "internalType": "uint256",
              "name": "matchId",
              "type": "uint256"
            },
            {
              "internalType": "address",
              "name": "winner_",
              "type": "address"
            }
          ],
          "name": "finishMatch",
          "outputs": [],
          "stateMutability": "nonpayable",
          "type": "function"
        },
        {
          "inputs": [
            {
              "internalType": "address",
              "name": "player_",
              "type": "address"
            },
            {
              "internalType": "address",
              "name": "winner_",
              "type": "address"
            }
          ],
          "name": "finishMatchByPlayer",
          "outputs": [],
          "stateMutability": "nonpayable",
          "type": "function"
        },
        {
          "inputs": [
            {
              "internalType": "bytes32",
              "name": "role",
              "type": "bytes32"
            }
          ],
          "name": "getRoleAdmin",
          "outputs": [
            {
              "internalType": "bytes32",
              "name": "",
              "type": "bytes32"
            }
          ],
          "stateMutability": "view",
          "type": "function"
        },
        {
          "inputs": [
            {
              "internalType": "bytes32",
              "name": "role",
              "type": "bytes32"
            },
            {
              "internalType": "address",
              "name": "account",
              "type": "address"
            }
          ],
          "name": "grantRole",
          "outputs": [],
          "stateMutability": "nonpayable",
          "type": "function"
        },
        {
          "inputs": [
            {
              "internalType": "address",
              "name": "server_",
              "type": "address"
            }
          ],
          "name": "grantServerRole",
          "outputs": [],
          "stateMutability": "nonpayable",
          "type": "function"
        },
        {
          "inputs": [
            {
              "internalType": "bytes32",
              "name": "role",
              "type": "bytes32"
            },
            {
              "internalType": "address",
              "name": "account",
              "type": "address"
            }
          ],
          "name": "hasRole",
          "outputs": [
            {
              "internalType": "bool",
              "name": "",
              "type": "bool"
            }
          ],
          "stateMutability": "view",
          "type": "function"
        },
        {
          "inputs": [
            {
              "internalType": "address",
              "name": "server_",
              "type": "address"
            }
          ],
          "name": "hasServerRole",
          "outputs": [
            {
              "internalType": "bool",
              "name": "",
              "type": "bool"
            }
          ],
          "stateMutability": "view",
          "type": "function"
        },
        {
          "inputs": [],
          "name": "leaderboard",
          "outputs": [
            {
              "internalType": "contract Leaderboard",
              "name": "",
              "type": "address"
            }
          ],
          "stateMutability": "view",
          "type": "function"
        },
        {
          "inputs": [],
          "name": "matchIds",
          "outputs": [
            {
              "internalType": "uint256",
              "name": "",
              "type": "uint256"
            }
          ],
          "stateMutability": "view",
          "type": "function"
        },
        {
          "inputs": [
            {
              "internalType": "uint256",
              "name": "",
              "type": "uint256"
            }
          ],
          "name": "matches",
          "outputs": [
            {
              "internalType": "address",
              "name": "player1",
              "type": "address"
            },
            {
              "internalType": "address",
              "name": "player2",
              "type": "address"
            }
          ],
          "stateMutability": "view",
          "type": "function"
        },
        {
          "inputs": [
            {
              "internalType": "address",
              "name": "",
              "type": "address"
            }
          ],
          "name": "playerDeposits",
          "outputs": [
            {
              "internalType": "uint256",
              "name": "",
              "type": "uint256"
            }
          ],
          "stateMutability": "view",
          "type": "function"
        },
        {
          "inputs": [
            {
              "internalType": "address",
              "name": "",
              "type": "address"
            }
          ],
          "name": "playerMatches",
          "outputs": [
            {
              "internalType": "uint256",
              "name": "",
              "type": "uint256"
            }
          ],
          "stateMutability": "view",
          "type": "function"
        },
        {
          "inputs": [
            {
              "internalType": "bytes32",
              "name": "role",
              "type": "bytes32"
            },
            {
              "internalType": "address",
              "name": "callerConfirmation",
              "type": "address"
            }
          ],
          "name": "renounceRole",
          "outputs": [],
          "stateMutability": "nonpayable",
          "type": "function"
        },
        {
          "inputs": [
            {
              "internalType": "bytes32",
              "name": "role",
              "type": "bytes32"
            },
            {
              "internalType": "address",
              "name": "account",
              "type": "address"
            }
          ],
          "name": "revokeRole",
          "outputs": [],
          "stateMutability": "nonpayable",
          "type": "function"
        },
        {
          "inputs": [
            {
              "internalType": "address",
              "name": "server_",
              "type": "address"
            }
          ],
          "name": "revokeServerRole",
          "outputs": [],
          "stateMutability": "nonpayable",
          "type": "function"
        },
        {
          "inputs": [
            {
              "internalType": "address",
              "name": "feeReceiver_",
              "type": "address"
            }
          ],
          "name": "setFeeReceiver",
          "outputs": [],
          "stateMutability": "nonpayable",
          "type": "function"
        },
        {
          "inputs": [
            {
              "internalType": "address",
              "name": "token_",
              "type": "address"
            },
            {
              "internalType": "uint256",
              "name": "deposit_",
              "type": "uint256"
            },
            {
              "internalType": "uint256",
              "name": "winner_",
              "type": "uint256"
            },
            {
              "internalType": "uint256",
              "name": "burn_",
              "type": "uint256"
            },
            {
              "internalType": "uint256",
              "name": "fee_",
              "type": "uint256"
            }
          ],
          "name": "setGameParams",
          "outputs": [],
          "stateMutability": "nonpayable",
          "type": "function"
        },
        {
          "inputs": [
            {
              "internalType": "address",
              "name": "leaderboard_",
              "type": "address"
            }
          ],
          "name": "setLeaderboard",
          "outputs": [],
          "stateMutability": "nonpayable",
          "type": "function"
        },
        {
          "inputs": [
            {
              "internalType": "bytes4",
              "name": "interfaceId",
              "type": "bytes4"
            }
          ],
          "name": "supportsInterface",
          "outputs": [
            {
              "internalType": "bool",
              "name": "",
              "type": "bool"
            }
          ],
          "stateMutability": "view",
          "type": "function"
        },
        {
          "inputs": [],
          "name": "token",
          "outputs": [
            {
              "internalType": "contract IERC20",
              "name": "",
              "type": "address"
            }
          ],
          "stateMutability": "view",
          "type": "function"
        },
        {
          "inputs": [],
          "name": "winnerAmount",
          "outputs": [
            {
              "internalType": "uint256",
              "name": "",
              "type": "uint256"
            }
          ],
          "stateMutability": "view",
          "type": "function"
        },
        {
          "inputs": [],
          "name": "withdraw",
          "outputs": [],
          "stateMutability": "nonpayable",
          "type": "function"
        }
      ],
      "evm": {
        "bytecode": {
          "linkReferences": {},
          "object": "608060405234801561001057600080fd5b50604051620015ee380380620015ee8339810160408190526100319161010e565b61003c600033610062565b50600680546001600160a01b0319166001600160a01b039290921691909117905561013e565b6000828152602081815260408083206001600160a01b038516845290915281205460ff16610104576000838152602081815260408083206001600160a01b03861684529091529020805460ff191660011790556100bc3390565b6001600160a01b0316826001600160a01b0316847f2f8788117e7eff1d82e926ec794901d17c78024a50270940304540a733656f0d60405160405180910390a4506001610108565b5060005b92915050565b60006020828403121561012057600080fd5b81516001600160a01b038116811461013757600080fd5b9392505050565b6114a0806200014e6000396000f3fe608060405234801561001057600080fd5b50600436106101da5760003560e01c806399d02d9611610104578063d547741f116100a2578063eb56b74011610071578063eb56b74014610424578063efdcd97414610437578063f1a2de721461044a578063fc0c546a1461045d57600080fd5b8063d547741f146103d5578063dad05d6e146103e8578063df6ffa87146103fb578063e388eeb11461041b57600080fd5b8063b3f00674116100de578063b3f006741461039e578063cae9ab7a146103b1578063d0e30db0146103ba578063d32d22ff146103c257600080fd5b806399d02d961461034b578063a217fddf1461036b578063b02c43d01461037357600080fd5b80633ccfd60b1161017c5780636028e6611161014b5780636028e6611461030957806369e154041461031c578063751947ce1461032557806391d148541461033857600080fd5b80633ccfd60b1461029b578063419759f5146102a35780634768d4ef146102ac578063486a7e6b1461030057600080fd5b80632f2ff15d116101b85780632f2ff15d1461024d57806336568abe146102625780633717dd78146102755780633cb949161461028857600080fd5b806301ffc9a7146101df57806318cf283414610207578063248a9ca31461022a575b600080fd5b6101f26101ed3660046112a1565b610470565b60405190151581526020015b60405180910390f35b61021c60008051602061144b83398151915281565b6040519081526020016101fe565b61021c6102383660046112d2565b60009081526020819052604090206001015490565b61026061025b366004611307565b6104a7565b005b610260610270366004611307565b6104d2565b610260610283366004611333565b61050a565b6101f261029636600461135d565b61059e565b6102606105b8565b61021c60025481565b6102e06102ba3660046112d2565b600b60205260009081526040902080546001909101546001600160a01b03918216911682565b604080516001600160a01b039384168152929091166020830152016101fe565b61021c60045481565b610260610317366004611378565b610859565b61021c60055481565b610260610333366004611307565b610903565b6101f2610346366004611307565b610c25565b61021c61035936600461135d565b600a6020526000908152604090205481565b61021c600081565b6103866103813660046112d2565b610c4e565b6040516001600160a01b0390911681526020016101fe565b600654610386906001600160a01b031681565b61021c60035481565b610260610c78565b6102606103d036600461135d565b610e71565b6102606103e3366004611307565b610ed8565b6102606103f636600461135d565b610efd565b61021c61040936600461135d565b60096020526000908152604090205481565b61021c600c5481565b600754610386906001600160a01b031681565b61026061044536600461135d565b610f20565b61026061045836600461135d565b610f4e565b600154610386906001600160a01b031681565b60006001600160e01b03198216637965db0b60e01b14806104a157506301ffc9a760e01b6001600160e01b03198316145b92915050565b6000828152602081905260409020600101546104c281610f7c565b6104cc8383610f89565b50505050565b6001600160a01b03811633146104fb5760405163334bd91960e11b815260040160405180910390fd5b610505828261101b565b505050565b60008051602061144b83398151915261052281610f7c565b6001600160a01b0383166000908152600a602052604090205461057b5760405162461bcd60e51b815260206004820152600c60248201526b3737ba103090383630bcb2b960a11b60448201526064015b60405180910390fd5b6001600160a01b0383166000908152600a60205260409020546105059083610903565b60006104a160008051602061144b83398151915283610c25565b6105c133611086565b6105fa5760405162461bcd60e51b815260206004820152600a6024820152691b9bc819195c1bdcda5d60b21b6044820152606401610572565b336000908152600a6020526040902054156106495760405162461bcd60e51b815260206004820152600f60248201526e616c726561647920706c6179696e6760881b6044820152606401610572565b336000818152600960205260409081902054600154600254925163a9059cbb60e01b815260048101949094526024840192909252916001600160a01b039091169063a9059cbb906044016020604051808303816000875af11580156106b2573d6000803e3d6000fd5b505050506040513d601f19601f820116820180604052508101906106d691906113ba565b6107225760405162461bcd60e51b815260206004820152601960248201527f6661696c656420746f207472616e7366657220746f6b656e73000000000000006044820152606401610572565b6008548190610733906001906113f2565b0361077057600880548061074957610749611405565b600082815260209020810160001990810180546001600160a01b031916905501905561081e565b60088054610780906001906113f2565b815481106107905761079061141b565b600091825260209091200154600880546001600160a01b0390921691839081106107bc576107bc61141b565b9060005260206000200160006101000a8154816001600160a01b0302191690836001600160a01b0316021790555060088054806107fb576107fb611405565b600082815260209020810160001990810180546001600160a01b03191690550190555b33600081815260096020526040808220829055517ff67611512e0a2d90c96fd3f08dca4971bc45fba9dc679eabe839a32abbe58a8e9190a250565b600061086481610f7c565b6001600160a01b0386161580159061087c5750600085115b80156108885750600084115b80156108945750600083115b80156108a05750600082115b6108d05760405162461bcd60e51b81526020600482015260016024820152600360fc1b6044820152606401610572565b50600180546001600160a01b0319166001600160a01b039690961695909517909455600292909255600355600455600555565b60008051602061144b83398151915261091b81610f7c565b6000838152600b6020526040902080546001600160a01b0384811691161480610953575060018101546001600160a01b038481169116145b6109905760405162461bcd60e51b815260206004820152600e60248201526d34b73b30b634b2103bb4b73732b960911b6044820152606401610572565b80546001600160a01b039081169084168190036109b7575060018101546001600160a01b03165b81546001600160a01b039081166000908152600a6020908152604080832083905560018087015485168452818420849055898452600b835281842080546001600160a01b03199081168255908201805490911690555460048054835163a9059cbb60e01b81529182018690526024820152915194169363a9059cbb936044808401949383900301908290875af1158015610a55573d6000803e3d6000fd5b505050506040513d601f19601f82011682018060405250810190610a7991906113ba565b5060015460035460405163a9059cbb60e01b81526001600160a01b038781166004830152602482019290925291169063a9059cbb906044016020604051808303816000875af1158015610ad0573d6000803e3d6000fd5b505050506040513d601f19601f82011682018060405250810190610af491906113ba565b5060015460065460055460405163a9059cbb60e01b81526001600160a01b039283166004820152602481019190915291169063a9059cbb906044016020604051808303816000875af1158015610b4e573d6000803e3d6000fd5b505050506040513d601f19601f82011682018060405250810190610b7291906113ba565b50600754600354604051633d4b131760e21b815260048101919091526001600160a01b0386811660248301529091169063f52c4c5c90604401600060405180830381600087803b158015610bc557600080fd5b505af1158015610bd9573d6000803e3d6000fd5b5050505084816001600160a01b0316856001600160a01b03167fe70b26884c1418183ab014860acbd1005ed33b407836c56b8547e527f12fa9bb60405160405180910390a45050505050565b6000918252602082815260408084206001600160a01b0393909316845291905290205460ff1690565b60088181548110610c5e57600080fd5b6000918252602090912001546001600160a01b0316905081565b610c8133611086565b15610cc25760405162461bcd60e51b8152602060048201526011602482015270185b1c9958591e4819195c1bdcda5d1959607a1b6044820152606401610572565b336000908152600a602052604090205415610d115760405162461bcd60e51b815260206004820152600f60248201526e616c726561647920706c6179696e6760881b6044820152606401610572565b6001546002546040516323b872dd60e01b815233600482015230602482015260448101919091526001600160a01b03909116906323b872dd906064016020604051808303816000875af1158015610d6c573d6000803e3d6000fd5b505050506040513d601f19601f82011682018060405250810190610d9091906113ba565b610ddc5760405162461bcd60e51b815260206004820152601760248201527f6661696c656420746f206f627461696e20746f6b656e730000000000000000006044820152606401610572565b600880546001818101835560008390527ff3f7a9fe364faab93b216da50a3214154f22a0a2b415b23a84c8169e8b636ee390910180546001600160a01b031916331790559054610e2c91906113f2565b33600090815260096020526040902055610e446110d4565b60405133907f8ce0bd46ec50cf39f0d0ea8686a686eb226af5796dcda4231b26fb84b5ef123490600090a2565b6000610e7c81610f7c565b610e858261059e565b610ec05760405162461bcd60e51b815260206004820152600c60248201526b3737ba10309039b2b93b32b960a11b6044820152606401610572565b61050560008051602061144b8339815191528361101b565b600082815260208190526040902060010154610ef381610f7c565b6104cc838361101b565b6000610f0881610f7c565b61050560008051602061144b83398151915283610f89565b6000610f2b81610f7c565b50600680546001600160a01b0319166001600160a01b0392909216919091179055565b6000610f5981610f7c565b50600780546001600160a01b0319166001600160a01b0392909216919091179055565b610f868133611264565b50565b6000610f958383610c25565b611013576000838152602081815260408083206001600160a01b03861684529091529020805460ff19166001179055610fcb3390565b6001600160a01b0316826001600160a01b0316847f2f8788117e7eff1d82e926ec794901d17c78024a50270940304540a733656f0d60405160405180910390a45060016104a1565b5060006104a1565b60006110278383610c25565b15611013576000838152602081815260408083206001600160a01b0386168085529252808320805460ff1916905551339286917ff6391f5c32d9c69d2a47ea670b442974b53935d1edc7fd64eb21e047a839171b9190a45060016104a1565b6001600160a01b03811660009081526009602052604081205460088054839190839081106110b6576110b661141b565b6000918252602090912001546001600160a01b031614159392505050565b6008546002146110e057565b600c80549060006110f083611431565b91905055506000600860008154811061110b5761110b61141b565b6000918252602082200154600880546001600160a01b0390921693509060019081106111395761113961141b565b6000918252602080832090910154600c80548452600b8352604080852080546001600160a01b038981166001600160a01b03199283168117909355845488528388206001018054909216951694851790559154828652600a8552818620819055838652818620559084526009909252818320839055808352908220919091556008805491925090806111cd576111cd611405565b600082815260209020810160001990810180546001600160a01b0319169055019055600880548061120057611200611405565b600082815260208120820160001990810180546001600160a01b0319169055909101909155600c5460405190916001600160a01b0384811692908616917fdaa62f5dc391112de521eb5e9f1aea5ec7510337948f8b903bcfc40ccdc8c3e291a45050565b61126e8282610c25565b61129d5760405163e2517d3f60e01b81526001600160a01b038216600482015260248101839052604401610572565b5050565b6000602082840312156112b357600080fd5b81356001600160e01b0319811681146112cb57600080fd5b9392505050565b6000602082840312156112e457600080fd5b5035919050565b80356001600160a01b038116811461130257600080fd5b919050565b6000806040838503121561131a57600080fd5b8235915061132a602084016112eb565b90509250929050565b6000806040838503121561134657600080fd5b61134f836112eb565b915061132a602084016112eb565b60006020828403121561136f57600080fd5b6112cb826112eb565b600080600080600060a0868803121561139057600080fd5b611399866112eb565b97602087013597506040870135966060810135965060800135945092505050565b6000602082840312156113cc57600080fd5b815180151581146112cb57600080fd5b634e487b7160e01b600052601160045260246000fd5b818103818111156104a1576104a16113dc565b634e487b7160e01b600052603160045260246000fd5b634e487b7160e01b600052603260045260246000fd5b600060018201611443576114436113dc565b506001019056fecaa7f6290f33308266ee2988386694ac9bc3612b5df272e3502129925a64f997a2646970667358221220bfb2223ddf0e8111b463acb1df324b69837657cb49d7db68b5140e3942f77d5864736f6c63430008180033",
          "opcodes": "PUSH1 0x80 PUSH1 0x40 MSTORE CALLVALUE DUP1 ISZERO PUSH2 0x10 JUMPI PUSH1 0x0 DUP1 REVERT JUMPDEST POP PUSH1 0x40 MLOAD PUSH3 0x15EE CODESIZE SUB DUP1 PUSH3 0x15EE DUP4 CODECOPY DUP2 ADD PUSH1 0x40 DUP2 SWAP1 MSTORE PUSH2 0x31 SWAP2 PUSH2 0x10E JUMP JUMPDEST PUSH2 0x3C PUSH1 0x0 CALLER PUSH2 0x62 JUMP JUMPDEST POP PUSH1 0x6 DUP1 SLOAD PUSH1 0x1 PUSH1 0x1 PUSH1 0xA0 SHL SUB NOT AND PUSH1 0x1 PUSH1 0x1 PUSH1 0xA0 SHL SUB SWAP3 SWAP1 SWAP3 AND SWAP2 SWAP1 SWAP2 OR SWAP1 SSTORE PUSH2 0x13E JUMP JUMPDEST PUSH1 0x0 DUP3 DUP2 MSTORE PUSH1 0x20 DUP2 DUP2 MSTORE PUSH1 0x40 DUP1 DUP4 KECCAK256 PUSH1 0x1 PUSH1 0x1 PUSH1 0xA0 SHL SUB DUP6 AND DUP5 MSTORE SWAP1 SWAP2 MSTORE DUP2 KECCAK256 SLOAD PUSH1 0xFF AND PUSH2 0x104 JUMPI PUSH1 0x0 DUP4 DUP2 MSTORE PUSH1 0x20 DUP2 DUP2 MSTORE PUSH1 0x40 DUP1 DUP4 KECCAK256 PUSH1 0x1 PUSH1 0x1 PUSH1 0xA0 SHL SUB DUP7 AND DUP5 MSTORE SWAP1 SWAP2 MSTORE SWAP1 KECCAK256 DUP1 SLOAD PUSH1 0xFF NOT AND PUSH1 0x1 OR SWAP1 SSTORE PUSH2 0xBC CALLER SWAP1 JUMP JUMPDEST PUSH1 0x1 PUSH1 0x1 PUSH1 0xA0 SHL SUB AND DUP3 PUSH1 0x1 PUSH1 0x1 PUSH1 0xA0 SHL SUB AND DUP5 PUSH32 0x2F8788117E7EFF1D82E926EC794901D17C78024A50270940304540A733656F0D PUSH1 0x40 MLOAD PUSH1 0x40 MLOAD DUP1 SWAP2 SUB SWAP1 LOG4 POP PUSH1 0x1 PUSH2 0x108 JUMP JUMPDEST POP PUSH1 0x0 JUMPDEST SWAP3 SWAP2 POP POP JUMP JUMPDEST PUSH1 0x0 PUSH1 0x20 DUP3 DUP5 SUB SLT ISZERO PUSH2 0x120 JUMPI PUSH1 0x0 DUP1 REVERT JUMPDEST DUP2 MLOAD PUSH1 0x1 PUSH1 0x1 PUSH1 0xA0 SHL SUB DUP2 AND DUP2 EQ PUSH2 0x137 JUMPI PUSH1 0x0 DUP1 REVERT JUMPDEST SWAP4 SWAP3 POP POP POP JUMP JUMPDEST PUSH2 0x14A0 DUP1 PUSH3 0x14E PUSH1 0x0 CODECOPY PUSH1 0x0 RETURN INVALID PUSH1 0x80 PUSH1 0x40 MSTORE CALLVALUE DUP1 ISZERO PUSH2 0x10 JUMPI PUSH1 0x0 DUP1 REVERT JUMPDEST POP PUSH1 0x4 CALLDATASIZE LT PUSH2 0x1DA JUMPI PUSH1 0x0 CALLDATALOAD PUSH1 0xE0 SHR DUP1 PUSH4 0x99D02D96 GT PUSH2 0x104 JUMPI DUP1 PUSH4 0xD547741F GT PUSH2 0xA2 JUMPI DUP1 PUSH4 0xEB56B740 GT PUSH2 0x71 JUMPI DUP1 PUSH4 0xEB56B740 EQ PUSH2 0x424 JUMPI DUP1 PUSH4 0xEFDCD974 EQ PUSH2 0x437 JUMPI DUP1 PUSH4 0xF1A2DE72 EQ PUSH2 0x44A JUMPI DUP1 PUSH4 0xFC0C546A EQ PUSH2 0x45D JUMPI PUSH1 0x0 DUP1 REVERT JUMPDEST DUP1 PUSH4 0xD547741F EQ PUSH2 0x3D5 JUMPI DUP1 PUSH4 0xDAD05D6E EQ PUSH2 0x3E8 JUMPI DUP1 PUSH4 0xDF6FFA87 EQ PUSH2 0x3FB JUMPI DUP1 PUSH4 0xE388EEB1 EQ PUSH2 0x41B JUMPI PUSH1 0x0 DUP1 REVERT JUMPDEST DUP1 PUSH4 0xB3F00674 GT PUSH2 0xDE JUMPI DUP1 PUSH4 0xB3F00674 EQ PUSH2 0x39E JUMPI DUP1 PUSH4 0xCAE9AB7A EQ PUSH2 0x3B1 JUMPI DUP1 PUSH4 0xD0E30DB0 EQ PUSH2 0x3BA JUMPI DUP1 PUSH4 0xD32D22FF EQ PUSH2 0x3C2 JUMPI PUSH1 0x0 DUP1 REVERT JUMPDEST DUP1 PUSH4 0x99D02D96 EQ PUSH2 0x34B JUMPI DUP1 PUSH4 0xA217FDDF EQ PUSH2 0x36B JUMPI DUP1 PUSH4 0xB02C43D0 EQ PUSH2 0x373 JUMPI PUSH1 0x0 DUP1 REVERT JUMPDEST DUP1 PUSH4 0x3CCFD60B GT PUSH2 0x17C JUMPI DUP1 PUSH4 0x6028E661 GT PUSH2 0x14B JUMPI DUP1 PUSH4 0x6028E661 EQ PUSH2 0x309 JUMPI DUP1 PUSH4 0x69E15404 EQ PUSH2 0x31C JUMPI DUP1 PUSH4 0x751947CE EQ PUSH2 0x325 JUMPI DUP1 PUSH4 0x91D14854 EQ PUSH2 0x338 JUMPI PUSH1 0x0 DUP1 REVERT JUMPDEST DUP1 PUSH4 0x3CCFD60B EQ PUSH2 0x29B JUMPI DUP1 PUSH4 0x419759F5 EQ PUSH2 0x2A3 JUMPI DUP1 PUSH4 0x4768D4EF EQ PUSH2 0x2AC JUMPI DUP1 PUSH4 0x486A7E6B EQ PUSH2 0x300 JUMPI PUSH1 0x0 DUP1 REVERT JUMPDEST DUP1 PUSH4 0x2F2FF15D GT PUSH2 0x1B8 JUMPI DUP1 PUSH4 0x2F2FF15D EQ PUSH2 0x24D JUMPI DUP1 PUSH4 0x36568ABE EQ PUSH2 0x262 JUMPI DUP1 PUSH4 0x3717DD78 EQ PUSH2 0x275 JUMPI DUP1 PUSH4 0x3CB94916 EQ PUSH2 0x288 JUMPI PUSH1 0x0 DUP1 REVERT JUMPDEST DUP1 PUSH4 0x1FFC9A7 EQ PUSH2 0x1DF JUMPI DUP1 PUSH4 0x18CF2834 EQ PUSH2 0x207 JUMPI DUP1 PUSH4 0x248A9CA3 EQ PUSH2 0x22A JUMPI JUMPDEST PUSH1 0x0 DUP1 REVERT JUMPDEST PUSH2 0x1F2 PUSH2 0x1ED CALLDATASIZE PUSH1 0x4 PUSH2 0x12A1 JUMP JUMPDEST PUSH2 0x470 JUMP JUMPDEST PUSH1 0x40 MLOAD SWAP1 ISZERO ISZERO DUP2 MSTORE PUSH1 0x20 ADD JUMPDEST PUSH1 0x40 MLOAD DUP1 SWAP2 SUB SWAP1 RETURN JUMPDEST PUSH2 0x21C PUSH1 0x0 DUP1 MLOAD PUSH1 0x20 PUSH2 0x144B DUP4 CODECOPY DUP2 MLOAD SWAP2 MSTORE DUP2 JUMP JUMPDEST PUSH1 0x40 MLOAD SWAP1 DUP2 MSTORE PUSH1 0x20 ADD PUSH2 0x1FE JUMP JUMPDEST PUSH2 0x21C PUSH2 0x238 CALLDATASIZE PUSH1 0x4 PUSH2 0x12D2 JUMP JUMPDEST PUSH1 0x0 SWAP1 DUP2 MSTORE PUSH1 0x20 DUP2 SWAP1 MSTORE PUSH1 0x40 SWAP1 KECCAK256 PUSH1 0x1 ADD SLOAD SWAP1 JUMP JUMPDEST PUSH2 0x260 PUSH2 0x25B CALLDATASIZE PUSH1 0x4 PUSH2 0x1307 JUMP JUMPDEST PUSH2 0x4A7 JUMP JUMPDEST STOP JUMPDEST PUSH2 0x260 PUSH2 0x270 CALLDATASIZE PUSH1 0x4 PUSH2 0x1307 JUMP JUMPDEST PUSH2 0x4D2 JUMP JUMPDEST PUSH2 0x260 PUSH2 0x283 CALLDATASIZE PUSH1 0x4 PUSH2 0x1333 JUMP JUMPDEST PUSH2 0x50A JUMP JUMPDEST PUSH2 0x1F2 PUSH2 0x296 CALLDATASIZE PUSH1 0x4 PUSH2 0x135D JUMP JUMPDEST PUSH2 0x59E JUMP JUMPDEST PUSH2 0x260 PUSH2 0x5B8 JUMP JUMPDEST PUSH2 0x21C PUSH1 0x2 SLOAD DUP2 JUMP JUMPDEST PUSH2 0x2E0 PUSH2 0x2BA CALLDATASIZE PUSH1 0x4 PUSH2 0x12D2 JUMP JUMPDEST PUSH1 0xB PUSH1 0x20 MSTORE PUSH1 0x0 SWAP1 DUP2 MSTORE PUSH1 0x40 SWAP1 KECCAK256 DUP1 SLOAD PUSH1 0x1 SWAP1 SWAP2 ADD SLOAD PUSH1 0x1 PUSH1 0x1 PUSH1 0xA0 SHL SUB SWAP2 DUP3 AND SWAP2 AND DUP3 JUMP JUMPDEST PUSH1 0x40 DUP1 MLOAD PUSH1 0x1 PUSH1 0x1 PUSH1 0xA0 SHL SUB SWAP4 DUP5 AND DUP2 MSTORE SWAP3 SWAP1 SWAP2 AND PUSH1 0x20 DUP4 ADD MSTORE ADD PUSH2 0x1FE JUMP JUMPDEST PUSH2 0x21C PUSH1 0x4 SLOAD DUP2 JUMP JUMPDEST PUSH2 0x260 PUSH2 0x317 CALLDATASIZE PUSH1 0x4 PUSH2 0x1378 JUMP JUMPDEST PUSH2 0x859 JUMP JUMPDEST PUSH2 0x21C PUSH1 0x5 SLOAD DUP2 JUMP JUMPDEST PUSH2 0x260 PUSH2 0x333 CALLDATASIZE PUSH1 0x4 PUSH2 0x1307 JUMP JUMPDEST PUSH2 0x903 JUMP JUMPDEST PUSH2 0x1F2 PUSH2 0x346 CALLDATASIZE PUSH1 0x4 PUSH2 0x1307 JUMP JUMPDEST PUSH2 0xC25 JUMP JUMPDEST PUSH2 0x21C PUSH2 0x359 CALLDATASIZE PUSH1 0x4 PUSH2 0x135D JUMP JUMPDEST PUSH1 0xA PUSH1 0x20 MSTORE PUSH1 0x0 SWAP1 DUP2 MSTORE PUSH1 0x40 SWAP1 KECCAK256 SLOAD DUP2 JUMP JUMPDEST PUSH2 0x21C PUSH1 0x0 DUP2 JUMP JUMPDEST PUSH2 0x386 PUSH2 0x381 CALLDATASIZE PUSH1 0x4 PUSH2 0x12D2 JUMP JUMPDEST PUSH2 0xC4E JUMP JUMPDEST PUSH1 0x40 MLOAD PUSH1 0x1 PUSH1 0x1 PUSH1 0xA0 SHL SUB SWAP1 SWAP2 AND DUP2 MSTORE PUSH1 0x20 ADD PUSH2 0x1FE JUMP JUMPDEST PUSH1 0x6 SLOAD PUSH2 0x386 SWAP1 PUSH1 0x1 PUSH1 0x1 PUSH1 0xA0 SHL SUB AND DUP2 JUMP JUMPDEST PUSH2 0x21C PUSH1 0x3 SLOAD DUP2 JUMP JUMPDEST PUSH2 0x260 PUSH2 0xC78 JUMP JUMPDEST PUSH2 0x260 PUSH2 0x3D0 CALLDATASIZE PUSH1 0x4 PUSH2 0x135D JUMP JUMPDEST PUSH2 0xE71 JUMP JUMPDEST PUSH2 0x260 PUSH2 0x3E3 CALLDATASIZE PUSH1 0x4 PUSH2 0x1307 JUMP JUMPDEST PUSH2 0xED8 JUMP JUMPDEST PUSH2 0x260 PUSH2 0x3F6 CALLDATASIZE PUSH1 0x4 PUSH2 0x135D JUMP JUMPDEST PUSH2 0xEFD JUMP JUMPDEST PUSH2 0x21C PUSH2 0x409 CALLDATASIZE PUSH1 0x4 PUSH2 0x135D JUMP JUMPDEST PUSH1 0x9 PUSH1 0x20 MSTORE PUSH1 0x0 SWAP1 DUP2 MSTORE PUSH1 0x40 SWAP1 KECCAK256 SLOAD DUP2 JUMP JUMPDEST PUSH2 0x21C PUSH1 0xC SLOAD DUP2 JUMP JUMPDEST PUSH1 0x7 SLOAD PUSH2 0x386 SWAP1 PUSH1 0x1 PUSH1 0x1 PUSH1 0xA0 SHL SUB AND DUP2 JUMP JUMPDEST PUSH2 0x260 PUSH2 0x445 CALLDATASIZE PUSH1 0x4 PUSH2 0x135D JUMP JUMPDEST PUSH2 0xF20 JUMP JUMPDEST PUSH2 0x260 PUSH2 0x458 CALLDATASIZE PUSH1 0x4 PUSH2 0x135D JUMP JUMPDEST PUSH2 0xF4E JUMP JUMPDEST PUSH1 0x1 SLOAD PUSH2 0x386 SWAP1 PUSH1 0x1 PUSH1 0x1 PUSH1 0xA0 SHL SUB AND DUP2 JUMP JUMPDEST PUSH1 0x0 PUSH1 0x1 PUSH1 0x1 PUSH1 0xE0 SHL SUB NOT DUP3 AND PUSH4 0x7965DB0B PUSH1 0xE0 SHL EQ DUP1 PUSH2 0x4A1 JUMPI POP PUSH4 0x1FFC9A7 PUSH1 0xE0 SHL PUSH1 0x1 PUSH1 0x1 PUSH1 0xE0 SHL SUB NOT DUP4 AND EQ JUMPDEST SWAP3 SWAP2 POP POP JUMP JUMPDEST PUSH1 0x0 DUP3 DUP2 MSTORE PUSH1 0x20 DUP2 SWAP1 MSTORE PUSH1 0x40 SWAP1 KECCAK256 PUSH1 0x1 ADD SLOAD PUSH2 0x4C2 DUP2 PUSH2 0xF7C JUMP JUMPDEST PUSH2 0x4CC DUP4 DUP4 PUSH2 0xF89 JUMP JUMPDEST POP POP POP POP JUMP JUMPDEST PUSH1 0x1 PUSH1 0x1 PUSH1 0xA0 SHL SUB DUP2 AND CALLER EQ PUSH2 0x4FB JUMPI PUSH1 0x40 MLOAD PUSH4 0x334BD919 PUSH1 0xE1 SHL DUP2 MSTORE PUSH1 0x4 ADD PUSH1 0x40 MLOAD DUP1 SWAP2 SUB SWAP1 REVERT JUMPDEST PUSH2 0x505 DUP3 DUP3 PUSH2 0x101B JUMP JUMPDEST POP POP POP JUMP JUMPDEST PUSH1 0x0 DUP1 MLOAD PUSH1 0x20 PUSH2 0x144B DUP4 CODECOPY DUP2 MLOAD SWAP2 MSTORE PUSH2 0x522 DUP2 PUSH2 0xF7C JUMP JUMPDEST PUSH1 0x1 PUSH1 0x1 PUSH1 0xA0 SHL SUB DUP4 AND PUSH1 0x0 SWAP1 DUP2 MSTORE PUSH1 0xA PUSH1 0x20 MSTORE PUSH1 0x40 SWAP1 KECCAK256 SLOAD PUSH2 0x57B JUMPI PUSH1 0x40 MLOAD PUSH3 0x461BCD PUSH1 0xE5 SHL DUP2 MSTORE PUSH1 0x20 PUSH1 0x4 DUP3 ADD MSTORE PUSH1 0xC PUSH1 0x24 DUP3 ADD MSTORE PUSH12 0x3737BA103090383630BCB2B9 PUSH1 0xA1 SHL PUSH1 0x44 DUP3 ADD MSTORE PUSH1 0x64 ADD JUMPDEST PUSH1 0x40 MLOAD DUP1 SWAP2 SUB SWAP1 REVERT JUMPDEST PUSH1 0x1 PUSH1 0x1 PUSH1 0xA0 SHL SUB DUP4 AND PUSH1 0x0 SWAP1 DUP2 MSTORE PUSH1 0xA PUSH1 0x20 MSTORE PUSH1 0x40 SWAP1 KECCAK256 SLOAD PUSH2 0x505 SWAP1 DUP4 PUSH2 0x903 JUMP JUMPDEST PUSH1 0x0 PUSH2 0x4A1 PUSH1 0x0 DUP1 MLOAD PUSH1 0x20 PUSH2 0x144B DUP4 CODECOPY DUP2 MLOAD SWAP2 MSTORE DUP4 PUSH2 0xC25 JUMP JUMPDEST PUSH2 0x5C1 CALLER PUSH2 0x1086 JUMP JUMPDEST PUSH2 0x5FA JUMPI PUSH1 0x40 MLOAD PUSH3 0x461BCD PUSH1 0xE5 SHL DUP2 MSTORE PUSH1 0x20 PUSH1 0x4 DUP3 ADD MSTORE PUSH1 0xA PUSH1 0x24 DUP3 ADD MSTORE PUSH10 0x1B9BC819195C1BDCDA5D PUSH1 0xB2 SHL PUSH1 0x44 DUP3 ADD MSTORE PUSH1 0x64 ADD PUSH2 0x572 JUMP JUMPDEST CALLER PUSH1 0x0 SWAP1 DUP2 MSTORE PUSH1 0xA PUSH1 0x20 MSTORE PUSH1 0x40 SWAP1 KECCAK256 SLOAD ISZERO PUSH2 0x649 JUMPI PUSH1 0x40 MLOAD PUSH3 0x461BCD PUSH1 0xE5 SHL DUP2 MSTORE PUSH1 0x20 PUSH1 0x4 DUP3 ADD MSTORE PUSH1 0xF PUSH1 0x24 DUP3 ADD MSTORE PUSH15 0x616C726561647920706C6179696E67 PUSH1 0x88 SHL PUSH1 0x44 DUP3 ADD MSTORE PUSH1 0x64 ADD PUSH2 0x572 JUMP JUMPDEST CALLER PUSH1 0x0 DUP2 DUP2 MSTORE PUSH1 0x9 PUSH1 0x20 MSTORE PUSH1 0x40 SWAP1 DUP2 SWAP1 KECCAK256 SLOAD PUSH1 0x1 SLOAD PUSH1 0x2 SLOAD SWAP3 MLOAD PUSH4 0xA9059CBB PUSH1 0xE0 SHL DUP2 MSTORE PUSH1 0x4 DUP2 ADD SWAP5 SWAP1 SWAP5 MSTORE PUSH1 0x24 DUP5 ADD SWAP3 SWAP1 SWAP3 MSTORE SWAP2 PUSH1 0x1 PUSH1 0x1 PUSH1 0xA0 SHL SUB SWAP1 SWAP2 AND SWAP1 PUSH4 0xA9059CBB SWAP1 PUSH1 0x44 ADD PUSH1 0x20 PUSH1 0x40 MLOAD DUP1 DUP4 SUB DUP2 PUSH1 0x0 DUP8 GAS CALL ISZERO DUP1 ISZERO PUSH2 0x6B2 JUMPI RETURNDATASIZE PUSH1 0x0 DUP1 RETURNDATACOPY RETURNDATASIZE PUSH1 0x0 REVERT JUMPDEST POP POP POP POP PUSH1 0x40 MLOAD RETURNDATASIZE PUSH1 0x1F NOT PUSH1 0x1F DUP3 ADD AND DUP3 ADD DUP1 PUSH1 0x40 MSTORE POP DUP2 ADD SWAP1 PUSH2 0x6D6 SWAP2 SWAP1 PUSH2 0x13BA JUMP JUMPDEST PUSH2 0x722 JUMPI PUSH1 0x40 MLOAD PUSH3 0x461BCD PUSH1 0xE5 SHL DUP2 MSTORE PUSH1 0x20 PUSH1 0x4 DUP3 ADD MSTORE PUSH1 0x19 PUSH1 0x24 DUP3 ADD MSTORE PUSH32 0x6661696C656420746F207472616E7366657220746F6B656E7300000000000000 PUSH1 0x44 DUP3 ADD MSTORE PUSH1 0x64 ADD PUSH2 0x572 JUMP JUMPDEST PUSH1 0x8 SLOAD DUP2 SWAP1 PUSH2 0x733 SWAP1 PUSH1 0x1 SWAP1 PUSH2 0x13F2 JUMP JUMPDEST SUB PUSH2 0x770 JUMPI PUSH1 0x8 DUP1 SLOAD DUP1 PUSH2 0x749 JUMPI PUSH2 0x749 PUSH2 0x1405 JUMP JUMPDEST PUSH1 0x0 DUP3 DUP2 MSTORE PUSH1 0x20 SWAP1 KECCAK256 DUP2 ADD PUSH1 0x0 NOT SWAP1 DUP2 ADD DUP1 SLOAD PUSH1 0x1 PUSH1 0x1 PUSH1 0xA0 SHL SUB NOT AND SWAP1 SSTORE ADD SWAP1 SSTORE PUSH2 0x81E JUMP JUMPDEST PUSH1 0x8 DUP1 SLOAD PUSH2 0x780 SWAP1 PUSH1 0x1 SWAP1 PUSH2 0x13F2 JUMP JUMPDEST DUP2 SLOAD DUP2 LT PUSH2 0x790 JUMPI PUSH2 0x790 PUSH2 0x141B JUMP JUMPDEST PUSH1 0x0 SWAP2 DUP3 MSTORE PUSH1 0x20 SWAP1 SWAP2 KECCAK256 ADD SLOAD PUSH1 0x8 DUP1 SLOAD PUSH1 0x1 PUSH1 0x1 PUSH1 0xA0 SHL SUB SWAP1 SWAP3 AND SWAP2 DUP4 SWAP1 DUP2 LT PUSH2 0x7BC JUMPI PUSH2 0x7BC PUSH2 0x141B JUMP JUMPDEST SWAP1 PUSH1 0x0 MSTORE PUSH1 0x20 PUSH1 0x0 KECCAK256 ADD PUSH1 0x0 PUSH2 0x100 EXP DUP2 SLOAD DUP2 PUSH1 0x1 PUSH1 0x1 PUSH1 0xA0 SHL SUB MUL NOT AND SWAP1 DUP4 PUSH1 0x1 PUSH1 0x1 PUSH1 0xA0 SHL SUB AND MUL OR SWAP1 SSTORE POP PUSH1 0x8 DUP1 SLOAD DUP1 PUSH2 0x7FB JUMPI PUSH2 0x7FB PUSH2 0x1405 JUMP JUMPDEST PUSH1 0x0 DUP3 DUP2 MSTORE PUSH1 0x20 SWAP1 KECCAK256 DUP2 ADD PUSH1 0x0 NOT SWAP1 DUP2 ADD DUP1 SLOAD PUSH1 0x1 PUSH1 0x1 PUSH1 0xA0 SHL SUB NOT AND SWAP1 SSTORE ADD SWAP1 SSTORE JUMPDEST CALLER PUSH1 0x0 DUP2 DUP2 MSTORE PUSH1 0x9 PUSH1 0x20 MSTORE PUSH1 0x40 DUP1 DUP3 KECCAK256 DUP3 SWAP1 SSTORE MLOAD PUSH32 0xF67611512E0A2D90C96FD3F08DCA4971BC45FBA9DC679EABE839A32ABBE58A8E SWAP2 SWAP1 LOG2 POP JUMP JUMPDEST PUSH1 0x0 PUSH2 0x864 DUP2 PUSH2 0xF7C JUMP JUMPDEST PUSH1 0x1 PUSH1 0x1 PUSH1 0xA0 SHL SUB DUP7 AND ISZERO DUP1 ISZERO SWAP1 PUSH2 0x87C JUMPI POP PUSH1 0x0 DUP6 GT JUMPDEST DUP1 ISZERO PUSH2 0x888 JUMPI POP PUSH1 0x0 DUP5 GT JUMPDEST DUP1 ISZERO PUSH2 0x894 JUMPI POP PUSH1 0x0 DUP4 GT JUMPDEST DUP1 ISZERO PUSH2 0x8A0 JUMPI POP PUSH1 0x0 DUP3 GT JUMPDEST PUSH2 0x8D0 JUMPI PUSH1 0x40 MLOAD PUSH3 0x461BCD PUSH1 0xE5 SHL DUP2 MSTORE PUSH1 0x20 PUSH1 0x4 DUP3 ADD MSTORE PUSH1 0x1 PUSH1 0x24 DUP3 ADD MSTORE PUSH1 0x3 PUSH1 0xFC SHL PUSH1 0x44 DUP3 ADD MSTORE PUSH1 0x64 ADD PUSH2 0x572 JUMP JUMPDEST POP PUSH1 0x1 DUP1 SLOAD PUSH1 0x1 PUSH1 0x1 PUSH1 0xA0 SHL SUB NOT AND PUSH1 0x1 PUSH1 0x1 PUSH1 0xA0 SHL SUB SWAP7 SWAP1 SWAP7 AND SWAP6 SWAP1 SWAP6 OR SWAP1 SWAP5 SSTORE PUSH1 0x2 SWAP3 SWAP1 SWAP3 SSTORE PUSH1 0x3 SSTORE PUSH1 0x4 SSTORE PUSH1 0x5 SSTORE JUMP JUMPDEST PUSH1 0x0 DUP1 MLOAD PUSH1 0x20 PUSH2 0x144B DUP4 CODECOPY DUP2 MLOAD SWAP2 MSTORE PUSH2 0x91B DUP2 PUSH2 0xF7C JUMP JUMPDEST PUSH1 0x0 DUP4 DUP2 MSTORE PUSH1 0xB PUSH1 0x20 MSTORE PUSH1 0x40 SWAP1 KECCAK256 DUP1 SLOAD PUSH1 0x1 PUSH1 0x1 PUSH1 0xA0 SHL SUB DUP5 DUP2 AND SWAP2 AND EQ DUP1 PUSH2 0x953 JUMPI POP PUSH1 0x1 DUP2 ADD SLOAD PUSH1 0x1 PUSH1 0x1 PUSH1 0xA0 SHL SUB DUP5 DUP2 AND SWAP2 AND EQ JUMPDEST PUSH2 0x990 JUMPI PUSH1 0x40 MLOAD PUSH3 0x461BCD PUSH1 0xE5 SHL DUP2 MSTORE PUSH1 0x20 PUSH1 0x4 DUP3 ADD MSTORE PUSH1 0xE PUSH1 0x24 DUP3 ADD MSTORE PUSH14 0x34B73B30B634B2103BB4B73732B9 PUSH1 0x91 SHL PUSH1 0x44 DUP3 ADD MSTORE PUSH1 0x64 ADD PUSH2 0x572 JUMP JUMPDEST DUP1 SLOAD PUSH1 0x1 PUSH1 0x1 PUSH1 0xA0 SHL SUB SWAP1 DUP2 AND SWAP1 DUP5 AND DUP2 SWAP1 SUB PUSH2 0x9B7 JUMPI POP PUSH1 0x1 DUP2 ADD SLOAD PUSH1 0x1 PUSH1 0x1 PUSH1 0xA0 SHL SUB AND JUMPDEST DUP2 SLOAD PUSH1 0x1 PUSH1 0x1 PUSH1 0xA0 SHL SUB SWAP1 DUP2 AND PUSH1 0x0 SWAP1 DUP2 MSTORE PUSH1 0xA PUSH1 0x20 SWAP1 DUP2 MSTORE PUSH1 0x40 DUP1 DUP4 KECCAK256 DUP4 SWAP1 SSTORE PUSH1 0x1 DUP1 DUP8 ADD SLOAD DUP6 AND DUP5 MSTORE DUP2 DUP5 KECCAK256 DUP5 SWAP1 SSTORE DUP10 DUP5 MSTORE PUSH1 0xB DUP4 MSTORE DUP2 DUP5 KECCAK256 DUP1 SLOAD PUSH1 0x1 PUSH1 0x1 PUSH1 0xA0 SHL SUB NOT SWAP1 DUP2 AND DUP3 SSTORE SWAP1 DUP3 ADD DUP1 SLOAD SWAP1 SWAP2 AND SWAP1 SSTORE SLOAD PUSH1 0x4 DUP1 SLOAD DUP4 MLOAD PUSH4 0xA9059CBB PUSH1 0xE0 SHL DUP2 MSTORE SWAP2 DUP3 ADD DUP7 SWAP1 MSTORE PUSH1 0x24 DUP3 ADD MSTORE SWAP2 MLOAD SWAP5 AND SWAP4 PUSH4 0xA9059CBB SWAP4 PUSH1 0x44 DUP1 DUP5 ADD SWAP5 SWAP4 DUP4 SWAP1 SUB ADD SWAP1 DUP3 SWAP1 DUP8 GAS CALL ISZERO DUP1 ISZERO PUSH2 0xA55 JUMPI RETURNDATASIZE PUSH1 0x0 DUP1 RETURNDATACOPY RETURNDATASIZE PUSH1 0x0 REVERT JUMPDEST POP POP POP POP PUSH1 0x40 MLOAD RETURNDATASIZE PUSH1 0x1F NOT PUSH1 0x1F DUP3 ADD AND DUP3 ADD DUP1 PUSH1 0x40 MSTORE POP DUP2 ADD SWAP1 PUSH2 0xA79 SWAP2 SWAP1 PUSH2 0x13BA JUMP JUMPDEST POP PUSH1 0x1 SLOAD PUSH1 0x3 SLOAD PUSH1 0x40 MLOAD PUSH4 0xA9059CBB PUSH1 0xE0 SHL DUP2 MSTORE PUSH1 0x1 PUSH1 0x1 PUSH1 0xA0 SHL SUB DUP8 DUP2 AND PUSH1 0x4 DUP4 ADD MSTORE PUSH1 0x24 DUP3 ADD SWAP3 SWAP1 SWAP3 MSTORE SWAP2 AND SWAP1 PUSH4 0xA9059CBB SWAP1 PUSH1 0x44 ADD PUSH1 0x20 PUSH1 0x40 MLOAD DUP1 DUP4 SUB DUP2 PUSH1 0x0 DUP8 GAS CALL ISZERO DUP1 ISZERO PUSH2 0xAD0 JUMPI RETURNDATASIZE PUSH1 0x0 DUP1 RETURNDATACOPY RETURNDATASIZE PUSH1 0x0 REVERT JUMPDEST POP POP POP POP PUSH1 0x40 MLOAD RETURNDATASIZE PUSH1 0x1F NOT PUSH1 0x1F DUP3 ADD AND DUP3 ADD DUP1 PUSH1 0x40 MSTORE POP DUP2 ADD SWAP1 PUSH2 0xAF4 SWAP2 SWAP1 PUSH2 0x13BA JUMP JUMPDEST POP PUSH1 0x1 SLOAD PUSH1 0x6 SLOAD PUSH1 0x5 SLOAD PUSH1 0x40 MLOAD PUSH4 0xA9059CBB PUSH1 0xE0 SHL DUP2 MSTORE PUSH1 0x1 PUSH1 0x1 PUSH1 0xA0 SHL SUB SWAP3 DUP4 AND PUSH1 0x4 DUP3 ADD MSTORE PUSH1 0x24 DUP2 ADD SWAP2 SWAP1 SWAP2 MSTORE SWAP2 AND SWAP1 PUSH4 0xA9059CBB SWAP1 PUSH1 0x44 ADD PUSH1 0x20 PUSH1 0x40 MLOAD DUP1 DUP4 SUB DUP2 PUSH1 0x0 DUP8 GAS CALL ISZERO DUP1 ISZERO PUSH2 0xB4E JUMPI RETURNDATASIZE PUSH1 0x0 DUP1 RETURNDATACOPY RETURNDATASIZE PUSH1 0x0 REVERT JUMPDEST POP POP POP POP PUSH1 0x40 MLOAD RETURNDATASIZE PUSH1 0x1F NOT PUSH1 0x1F DUP3 ADD AND DUP3 ADD DUP1 PUSH1 0x40 MSTORE POP DUP2 ADD SWAP1 PUSH2 0xB72 SWAP2 SWAP1 PUSH2 0x13BA JUMP JUMPDEST POP PUSH1 0x7 SLOAD PUSH1 0x3 SLOAD PUSH1 0x40 MLOAD PUSH4 0x3D4B1317 PUSH1 0xE2 SHL DUP2 MSTORE PUSH1 0x4 DUP2 ADD SWAP2 SWAP1 SWAP2 MSTORE PUSH1 0x1 PUSH1 0x1 PUSH1 0xA0 SHL SUB DUP7 DUP2 AND PUSH1 0x24 DUP4 ADD MSTORE SWAP1 SWAP2 AND SWAP1 PUSH4 0xF52C4C5C SWAP1 PUSH1 0x44 ADD PUSH1 0x0 PUSH1 0x40 MLOAD DUP1 DUP4 SUB DUP2 PUSH1 0x0 DUP8 DUP1 EXTCODESIZE ISZERO DUP1 ISZERO PUSH2 0xBC5 JUMPI PUSH1 0x0 DUP1 REVERT JUMPDEST POP GAS CALL ISZERO DUP1 ISZERO PUSH2 0xBD9 JUMPI RETURNDATASIZE PUSH1 0x0 DUP1 RETURNDATACOPY RETURNDATASIZE PUSH1 0x0 REVERT JUMPDEST POP POP POP POP DUP5 DUP2 PUSH1 0x1 PUSH1 0x1 PUSH1 0xA0 SHL SUB AND DUP6 PUSH1 0x1 PUSH1 0x1 PUSH1 0xA0 SHL SUB AND PUSH32 0xE70B26884C1418183AB014860ACBD1005ED33B407836C56B8547E527F12FA9BB PUSH1 0x40 MLOAD PUSH1 0x40 MLOAD DUP1 SWAP2 SUB SWAP1 LOG4 POP POP POP POP POP JUMP JUMPDEST PUSH1 0x0 SWAP2 DUP3 MSTORE PUSH1 0x20 DUP3 DUP2 MSTORE PUSH1 0x40 DUP1 DUP5 KECCAK256 PUSH1 0x1 PUSH1 0x1 PUSH1 0xA0 SHL SUB SWAP4 SWAP1 SWAP4 AND DUP5 MSTORE SWAP2 SWAP1 MSTORE SWAP1 KECCAK256 SLOAD PUSH1 0xFF AND SWAP1 JUMP JUMPDEST PUSH1 0x8 DUP2 DUP2 SLOAD DUP2 LT PUSH2 0xC5E JUMPI PUSH1 0x0 DUP1 REVERT JUMPDEST PUSH1 0x0 SWAP2 DUP3 MSTORE PUSH1 0x20 SWAP1 SWAP2 KECCAK256 ADD SLOAD PUSH1 0x1 PUSH1 0x1 PUSH1 0xA0 SHL SUB AND SWAP1 POP DUP2 JUMP JUMPDEST PUSH2 0xC81 CALLER PUSH2 0x1086 JUMP JUMPDEST ISZERO PUSH2 0xCC2 JUMPI PUSH1 0x40 MLOAD PUSH3 0x461BCD PUSH1 0xE5 SHL DUP2 MSTORE PUSH1 0x20 PUSH1 0x4 DUP3 ADD MSTORE PUSH1 0x11 PUSH1 0x24 DUP3 ADD MSTORE PUSH17 0x185B1C9958591E4819195C1BDCDA5D1959 PUSH1 0x7A SHL PUSH1 0x44 DUP3 ADD MSTORE PUSH1 0x64 ADD PUSH2 0x572 JUMP JUMPDEST CALLER PUSH1 0x0 SWAP1 DUP2 MSTORE PUSH1 0xA PUSH1 0x20 MSTORE PUSH1 0x40 SWAP1 KECCAK256 SLOAD ISZERO PUSH2 0xD11 JUMPI PUSH1 0x40 MLOAD PUSH3 0x461BCD PUSH1 0xE5 SHL DUP2 MSTORE PUSH1 0x20 PUSH1 0x4 DUP3 ADD MSTORE PUSH1 0xF PUSH1 0x24 DUP3 ADD MSTORE PUSH15 0x616C726561647920706C6179696E67 PUSH1 0x88 SHL PUSH1 0x44 DUP3 ADD MSTORE PUSH1 0x64 ADD PUSH2 0x572 JUMP JUMPDEST PUSH1 0x1 SLOAD PUSH1 0x2 SLOAD PUSH1 0x40 MLOAD PUSH4 0x23B872DD PUSH1 0xE0 SHL DUP2 MSTORE CALLER PUSH1 0x4 DUP3 ADD MSTORE ADDRESS PUSH1 0x24 DUP3 ADD MSTORE PUSH1 0x44 DUP2 ADD SWAP2 SWAP1 SWAP2 MSTORE PUSH1 0x1 PUSH1 0x1 PUSH1 0xA0 SHL SUB SWAP1 SWAP2 AND SWAP1 PUSH4 0x23B872DD SWAP1 PUSH1 0x64 ADD PUSH1 0x20 PUSH1 0x40 MLOAD DUP1 DUP4 SUB DUP2 PUSH1 0x0 DUP8 GAS CALL ISZERO DUP1 ISZERO PUSH2 0xD6C JUMPI RETURNDATASIZE PUSH1 0x0 DUP1 RETURNDATACOPY RETURNDATASIZE PUSH1 0x0 REVERT JUMPDEST POP POP POP POP PUSH1 0x40 MLOAD RETURNDATASIZE PUSH1 0x1F NOT PUSH1 0x1F DUP3 ADD AND DUP3 ADD DUP1 PUSH1 0x40 MSTORE POP DUP2 ADD SWAP1 PUSH2 0xD90 SWAP2 SWAP1 PUSH2 0x13BA JUMP JUMPDEST PUSH2 0xDDC JUMPI PUSH1 0x40 MLOAD PUSH3 0x461BCD PUSH1 0xE5 SHL DUP2 MSTORE PUSH1 0x20 PUSH1 0x4 DUP3 ADD MSTORE PUSH1 0x17 PUSH1 0x24 DUP3 ADD MSTORE PUSH32 0x6661696C656420746F206F627461696E20746F6B656E73000000000000000000 PUSH1 0x44 DUP3 ADD MSTORE PUSH1 0x64 ADD PUSH2 0x572 JUMP JUMPDEST PUSH1 0x8 DUP1 SLOAD PUSH1 0x1 DUP2 DUP2 ADD DUP4 SSTORE PUSH1 0x0 DUP4 SWAP1 MSTORE PUSH32 0xF3F7A9FE364FAAB93B216DA50A3214154F22A0A2B415B23A84C8169E8B636EE3 SWAP1 SWAP2 ADD DUP1 SLOAD PUSH1 0x1 PUSH1 0x1 PUSH1 0xA0 SHL SUB NOT AND CALLER OR SWAP1 SSTORE SWAP1 SLOAD PUSH2 0xE2C SWAP2 SWAP1 PUSH2 0x13F2 JUMP JUMPDEST CALLER PUSH1 0x0 SWAP1 DUP2 MSTORE PUSH1 0x9 PUSH1 0x20 MSTORE PUSH1 0x40 SWAP1 KECCAK256 SSTORE PUSH2 0xE44 PUSH2 0x10D4 JUMP JUMPDEST PUSH1 0x40 MLOAD CALLER SWAP1 PUSH32 0x8CE0BD46EC50CF39F0D0EA8686A686EB226AF5796DCDA4231B26FB84B5EF1234 SWAP1 PUSH1 0x0 SWAP1 LOG2 JUMP JUMPDEST PUSH1 0x0 PUSH2 0xE7C DUP2 PUSH2 0xF7C JUMP JUMPDEST PUSH2 0xE85 DUP3 PUSH2 0x59E JUMP JUMPDEST PUSH2 0xEC0 JUMPI PUSH1 0x40 MLOAD PUSH3 0x461BCD PUSH1 0xE5 SHL DUP2 MSTORE PUSH1 0x20 PUSH1 0x4 DUP3 ADD MSTORE PUSH1 0xC PUSH1 0x24 DUP3 ADD MSTORE PUSH12 0x3737BA10309039B2B93B32B9 PUSH1 0xA1 SHL PUSH1 0x44 DUP3 ADD MSTORE PUSH1 0x64 ADD PUSH2 0x572 JUMP JUMPDEST PUSH2 0x505 PUSH1 0x0 DUP1 MLOAD PUSH1 0x20 PUSH2 0x144B DUP4 CODECOPY DUP2 MLOAD SWAP2 MSTORE DUP4 PUSH2 0x101B JUMP JUMPDEST PUSH1 0x0 DUP3 DUP2 MSTORE PUSH1 0x20 DUP2 SWAP1 MSTORE PUSH1 0x40 SWAP1 KECCAK256 PUSH1 0x1 ADD SLOAD PUSH2 0xEF3 DUP2 PUSH2 0xF7C JUMP JUMPDEST PUSH2 0x4CC DUP4 DUP4 PUSH2 0x101B JUMP JUMPDEST PUSH1 0x0 PUSH2 0xF08 DUP2 PUSH2 0xF7C JUMP JUMPDEST PUSH2 0x505 PUSH1 0x0 DUP1 MLOAD PUSH1 0x20 PUSH2 0x144B DUP4 CODECOPY DUP2 MLOAD SWAP2 MSTORE DUP4 PUSH2 0xF89 JUMP JUMPDEST PUSH1 0x0 PUSH2 0xF2B DUP2 PUSH2 0xF7C JUMP JUMPDEST POP PUSH1 0x6 DUP1 SLOAD PUSH1 0x1 PUSH1 0x1 PUSH1 0xA0 SHL SUB NOT AND PUSH1 0x1 PUSH1 0x1 PUSH1 0xA0 SHL SUB SWAP3 SWAP1 SWAP3 AND SWAP2 SWAP1 SWAP2 OR SWAP1 SSTORE JUMP JUMPDEST PUSH1 0x0 PUSH2 0xF59 DUP2 PUSH2 0xF7C JUMP JUMPDEST POP PUSH1 0x7 DUP1 SLOAD PUSH1 0x1 PUSH1 0x1 PUSH1 0xA0 SHL SUB NOT AND PUSH1 0x1 PUSH1 0x1 PUSH1 0xA0 SHL SUB SWAP3 SWAP1 SWAP3 AND SWAP2 SWAP1 SWAP2 OR SWAP1 SSTORE JUMP JUMPDEST PUSH2 0xF86 DUP2 CALLER PUSH2 0x1264 JUMP JUMPDEST POP JUMP JUMPDEST PUSH1 0x0 PUSH2 0xF95 DUP4 DUP4 PUSH2 0xC25 JUMP JUMPDEST PUSH2 0x1013 JUMPI PUSH1 0x0 DUP4 DUP2 MSTORE PUSH1 0x20 DUP2 DUP2 MSTORE PUSH1 0x40 DUP1 DUP4 KECCAK256 PUSH1 0x1 PUSH1 0x1 PUSH1 0xA0 SHL SUB DUP7 AND DUP5 MSTORE SWAP1 SWAP2 MSTORE SWAP1 KECCAK256 DUP1 SLOAD PUSH1 0xFF NOT AND PUSH1 0x1 OR SWAP1 SSTORE PUSH2 0xFCB CALLER SWAP1 JUMP JUMPDEST PUSH1 0x1 PUSH1 0x1 PUSH1 0xA0 SHL SUB AND DUP3 PUSH1 0x1 PUSH1 0x1 PUSH1 0xA0 SHL SUB AND DUP5 PUSH32 0x2F8788117E7EFF1D82E926EC794901D17C78024A50270940304540A733656F0D PUSH1 0x40 MLOAD PUSH1 0x40 MLOAD DUP1 SWAP2 SUB SWAP1 LOG4 POP PUSH1 0x1 PUSH2 0x4A1 JUMP JUMPDEST POP PUSH1 0x0 PUSH2 0x4A1 JUMP JUMPDEST PUSH1 0x0 PUSH2 0x1027 DUP4 DUP4 PUSH2 0xC25 JUMP JUMPDEST ISZERO PUSH2 0x1013 JUMPI PUSH1 0x0 DUP4 DUP2 MSTORE PUSH1 0x20 DUP2 DUP2 MSTORE PUSH1 0x40 DUP1 DUP4 KECCAK256 PUSH1 0x1 PUSH1 0x1 PUSH1 0xA0 SHL SUB DUP7 AND DUP1 DUP6 MSTORE SWAP3 MSTORE DUP1 DUP4 KECCAK256 DUP1 SLOAD PUSH1 0xFF NOT AND SWAP1 SSTORE MLOAD CALLER SWAP3 DUP7 SWAP2 PUSH32 0xF6391F5C32D9C69D2A47EA670B442974B53935D1EDC7FD64EB21E047A839171B SWAP2 SWAP1 LOG4 POP PUSH1 0x1 PUSH2 0x4A1 JUMP JUMPDEST PUSH1 0x1 PUSH1 0x1 PUSH1 0xA0 SHL SUB DUP2 AND PUSH1 0x0 SWAP1 DUP2 MSTORE PUSH1 0x9 PUSH1 0x20 MSTORE PUSH1 0x40 DUP2 KECCAK256 SLOAD PUSH1 0x8 DUP1 SLOAD DUP4 SWAP2 SWAP1 DUP4 SWAP1 DUP2 LT PUSH2 0x10B6 JUMPI PUSH2 0x10B6 PUSH2 0x141B JUMP JUMPDEST PUSH1 0x0 SWAP2 DUP3 MSTORE PUSH1 0x20 SWAP1 SWAP2 KECCAK256 ADD SLOAD PUSH1 0x1 PUSH1 0x1 PUSH1 0xA0 SHL SUB AND EQ ISZERO SWAP4 SWAP3 POP POP POP JUMP JUMPDEST PUSH1 0x8 SLOAD PUSH1 0x2 EQ PUSH2 0x10E0 JUMPI JUMP JUMPDEST PUSH1 0xC DUP1 SLOAD SWAP1 PUSH1 0x0 PUSH2 0x10F0 DUP4 PUSH2 0x1431 JUMP JUMPDEST SWAP2 SWAP1 POP SSTORE POP PUSH1 0x0 PUSH1 0x8 PUSH1 0x0 DUP2 SLOAD DUP2 LT PUSH2 0x110B JUMPI PUSH2 0x110B PUSH2 0x141B JUMP JUMPDEST PUSH1 0x0 SWAP2 DUP3 MSTORE PUSH1 0x20 DUP3 KECCAK256 ADD SLOAD PUSH1 0x8 DUP1 SLOAD PUSH1 0x1 PUSH1 0x1 PUSH1 0xA0 SHL SUB SWAP1 SWAP3 AND SWAP4 POP SWAP1 PUSH1 0x1 SWAP1 DUP2 LT PUSH2 0x1139 JUMPI PUSH2 0x1139 PUSH2 0x141B JUMP JUMPDEST PUSH1 0x0 SWAP2 DUP3 MSTORE PUSH1 0x20 DUP1 DUP4 KECCAK256 SWAP1 SWAP2 ADD SLOAD PUSH1 0xC DUP1 SLOAD DUP5 MSTORE PUSH1 0xB DUP4 MSTORE PUSH1 0x40 DUP1 DUP6 KECCAK256 DUP1 SLOAD PUSH1 0x1 PUSH1 0x1 PUSH1 0xA0 SHL SUB DUP10 DUP2 AND PUSH1 0x1 PUSH1 0x1 PUSH1 0xA0 SHL SUB NOT SWAP3 DUP4 AND DUP2 OR SWAP1 SWAP4 SSTORE DUP5 SLOAD DUP9 MSTORE DUP4 DUP9 KECCAK256 PUSH1 0x1 ADD DUP1 SLOAD SWAP1 SWAP3 AND SWAP6 AND SWAP5 DUP6 OR SWAP1 SSTORE SWAP2 SLOAD DUP3 DUP7 MSTORE PUSH1 0xA DUP6 MSTORE DUP2 DUP7 KECCAK256 DUP2 SWAP1 SSTORE DUP4 DUP7 MSTORE DUP2 DUP7 KECCAK256 SSTORE SWAP1 DUP5 MSTORE PUSH1 0x9 SWAP1 SWAP3 MSTORE DUP2 DUP4 KECCAK256 DUP4 SWAP1 SSTORE DUP1 DUP4 MSTORE SWAP1 DUP3 KECCAK256 SWAP2 SWAP1 SWAP2 SSTORE PUSH1 0x8 DUP1 SLOAD SWAP2 SWAP3 POP SWAP1 DUP1 PUSH2 0x11CD JUMPI PUSH2 0x11CD PUSH2 0x1405 JUMP JUMPDEST PUSH1 0x0 DUP3 DUP2 MSTORE PUSH1 0x20 SWAP1 KECCAK256 DUP2 ADD PUSH1 0x0 NOT SWAP1 DUP2 ADD DUP1 SLOAD PUSH1 0x1 PUSH1 0x1 PUSH1 0xA0 SHL SUB NOT AND SWAP1 SSTORE ADD SWAP1 SSTORE PUSH1 0x8 DUP1 SLOAD DUP1 PUSH2 0x1200 JUMPI PUSH2 0x1200 PUSH2 0x1405 JUMP JUMPDEST PUSH1 0x0 DUP3 DUP2 MSTORE PUSH1 0x20 DUP2 KECCAK256 DUP3 ADD PUSH1 0x0 NOT SWAP1 DUP2 ADD DUP1 SLOAD PUSH1 0x1 PUSH1 0x1 PUSH1 0xA0 SHL SUB NOT AND SWAP1 SSTORE SWAP1 SWAP2 ADD SWAP1 SWAP2 SSTORE PUSH1 0xC SLOAD PUSH1 0x40 MLOAD SWAP1 SWAP2 PUSH1 0x1 PUSH1 0x1 PUSH1 0xA0 SHL SUB DUP5 DUP2 AND SWAP3 SWAP1 DUP7 AND SWAP2 PUSH32 0xDAA62F5DC391112DE521EB5E9F1AEA5EC7510337948F8B903BCFC40CCDC8C3E2 SWAP2 LOG4 POP POP JUMP JUMPDEST PUSH2 0x126E DUP3 DUP3 PUSH2 0xC25 JUMP JUMPDEST PUSH2 0x129D JUMPI PUSH1 0x40 MLOAD PUSH4 0xE2517D3F PUSH1 0xE0 SHL DUP2 MSTORE PUSH1 0x1 PUSH1 0x1 PUSH1 0xA0 SHL SUB DUP3 AND PUSH1 0x4 DUP3 ADD MSTORE PUSH1 0x24 DUP2 ADD DUP4 SWAP1 MSTORE PUSH1 0x44 ADD PUSH2 0x572 JUMP JUMPDEST POP POP JUMP JUMPDEST PUSH1 0x0 PUSH1 0x20 DUP3 DUP5 SUB SLT ISZERO PUSH2 0x12B3 JUMPI PUSH1 0x0 DUP1 REVERT JUMPDEST DUP2 CALLDATALOAD PUSH1 0x1 PUSH1 0x1 PUSH1 0xE0 SHL SUB NOT DUP2 AND DUP2 EQ PUSH2 0x12CB JUMPI PUSH1 0x0 DUP1 REVERT JUMPDEST SWAP4 SWAP3 POP POP POP JUMP JUMPDEST PUSH1 0x0 PUSH1 0x20 DUP3 DUP5 SUB SLT ISZERO PUSH2 0x12E4 JUMPI PUSH1 0x0 DUP1 REVERT JUMPDEST POP CALLDATALOAD SWAP2 SWAP1 POP JUMP JUMPDEST DUP1 CALLDATALOAD PUSH1 0x1 PUSH1 0x1 PUSH1 0xA0 SHL SUB DUP2 AND DUP2 EQ PUSH2 0x1302 JUMPI PUSH1 0x0 DUP1 REVERT JUMPDEST SWAP2 SWAP1 POP JUMP JUMPDEST PUSH1 0x0 DUP1 PUSH1 0x40 DUP4 DUP6 SUB SLT ISZERO PUSH2 0x131A JUMPI PUSH1 0x0 DUP1 REVERT JUMPDEST DUP3 CALLDATALOAD SWAP2 POP PUSH2 0x132A PUSH1 0x20 DUP5 ADD PUSH2 0x12EB JUMP JUMPDEST SWAP1 POP SWAP3 POP SWAP3 SWAP1 POP JUMP JUMPDEST PUSH1 0x0 DUP1 PUSH1 0x40 DUP4 DUP6 SUB SLT ISZERO PUSH2 0x1346 JUMPI PUSH1 0x0 DUP1 REVERT JUMPDEST PUSH2 0x134F DUP4 PUSH2 0x12EB JUMP JUMPDEST SWAP2 POP PUSH2 0x132A PUSH1 0x20 DUP5 ADD PUSH2 0x12EB JUMP JUMPDEST PUSH1 0x0 PUSH1 0x20 DUP3 DUP5 SUB SLT ISZERO PUSH2 0x136F JUMPI PUSH1 0x0 DUP1 REVERT JUMPDEST PUSH2 0x12CB DUP3 PUSH2 0x12EB JUMP JUMPDEST PUSH1 0x0 DUP1 PUSH1 0x0 DUP1 PUSH1 0x0 PUSH1 0xA0 DUP7 DUP9 SUB SLT ISZERO PUSH2 0x1390 JUMPI PUSH1 0x0 DUP1 REVERT JUMPDEST PUSH2 0x1399 DUP7 PUSH2 0x12EB JUMP JUMPDEST SWAP8 PUSH1 0x20 DUP8 ADD CALLDATALOAD SWAP8 POP PUSH1 0x40 DUP8 ADD CALLDATALOAD SWAP7 PUSH1 0x60 DUP2 ADD CALLDATALOAD SWAP7 POP PUSH1 0x80 ADD CALLDATALOAD SWAP5 POP SWAP3 POP POP POP JUMP JUMPDEST PUSH1 0x0 PUSH1 0x20 DUP3 DUP5 SUB SLT ISZERO PUSH2 0x13CC JUMPI PUSH1 0x0 DUP1 REVERT JUMPDEST DUP2 MLOAD DUP1 ISZERO ISZERO DUP2 EQ PUSH2 0x12CB JUMPI PUSH1 0x0 DUP1 REVERT JUMPDEST PUSH4 0x4E487B71 PUSH1 0xE0 SHL PUSH1 0x0 MSTORE PUSH1 0x11 PUSH1 0x4 MSTORE PUSH1 0x24 PUSH1 0x0 REVERT JUMPDEST DUP2 DUP2 SUB DUP2 DUP2 GT ISZERO PUSH2 0x4A1 JUMPI PUSH2 0x4A1 PUSH2 0x13DC JUMP JUMPDEST PUSH4 0x4E487B71 PUSH1 0xE0 SHL PUSH1 0x0 MSTORE PUSH1 0x31 PUSH1 0x4 MSTORE PUSH1 0x24 PUSH1 0x0 REVERT JUMPDEST PUSH4 0x4E487B71 PUSH1 0xE0 SHL PUSH1 0x0 MSTORE PUSH1 0x32 PUSH1 0x4 MSTORE PUSH1 0x24 PUSH1 0x0 REVERT JUMPDEST PUSH1 0x0 PUSH1 0x1 DUP3 ADD PUSH2 0x1443 JUMPI PUSH2 0x1443 PUSH2 0x13DC JUMP JUMPDEST POP PUSH1 0x1 ADD SWAP1 JUMP INVALID 0xCA 0xA7 0xF6 0x29 0xF CALLER ADDRESS DUP3 PUSH7 0xEE2988386694AC SWAP12 0xC3 PUSH2 0x2B5D CALLCODE PUSH19 0xE3502129925A64F997A2646970667358221220 0xBF 0xB2 0x22 RETURNDATASIZE 0xDF 0xE DUP2 GT 0xB4 PUSH4 0xACB1DF32 0x4B PUSH10 0x837657CB49D7DB68B514 0xE CODECOPY TIMESTAMP 0xF7 PUSH30 0x5864736F6C63430008180033000000000000000000000000000000000000 "
        },
        "methodIdentifiers": {
          "DEFAULT_ADMIN_ROLE()": "a217fddf",
          "SERVER_ROLE()": "18cf2834",
          "burnAmount()": "486a7e6b",
          "deposit()": "d0e30db0",
          "depositAmount()": "419759f5",
          "deposits(uint256)": "b02c43d0",
          "feeAmount()": "69e15404",
          "feeReceiver()": "b3f00674",
          "finishMatch(uint256,address)": "751947ce",
          "finishMatchByPlayer(address,address)": "3717dd78",
          "getRoleAdmin(bytes32)": "248a9ca3",
          "grantRole(bytes32,address)": "2f2ff15d",
          "grantServerRole(address)": "dad05d6e",
          "hasRole(bytes32,address)": "91d14854",
          "hasServerRole(address)": "3cb94916",
          "leaderboard()": "eb56b740",
          "matchIds()": "e388eeb1",
          "matches(uint256)": "4768d4ef",
          "playerDeposits(address)": "df6ffa87",
          "playerMatches(address)": "99d02d96",
          "renounceRole(bytes32,address)": "36568abe",
          "revokeRole(bytes32,address)": "d547741f",
          "revokeServerRole(address)": "d32d22ff",
          "setFeeReceiver(address)": "efdcd974",
          "setGameParams(address,uint256,uint256,uint256,uint256)": "6028e661",
          "setLeaderboard(address)": "f1a2de72",
          "supportsInterface(bytes4)": "01ffc9a7",
          "token()": "fc0c546a",
          "winnerAmount()": "cae9ab7a",
          "withdraw()": "3ccfd60b"
        }
      }
    }
  }
}