{
  "_format": "hh-sol-artifact-1",
  "contractName": "Lobby",
  "sourceName": "contracts/Lobby.sol",
  "abi": [
    {
      "inputs": [
        {
          "internalType": "address",
          "name": "feeReceiver_",
          "type": "address"
        }
      ],
      "stateMutability": "nonpayable",
      "type": "constructor"
    },
    {
      "inputs": [],
      "name": "AccessControlBadConfirmation",
      "type": "error"
    },
    {
      "inputs": [
        {
          "internalType": "address",
          "name": "account",
          "type": "address"
        },
        {
          "internalType": "bytes32",
          "name": "neededRole",
          "type": "bytes32"
        }
      ],
      "name": "AccessControlUnauthorizedAccount",
      "type": "error"
    },
    {
      "anonymous": false,
      "inputs": [
        {
          "indexed": true,
          "internalType": "address",
          "name": "player",
          "type": "address"
        }
      ],
      "name": "Deposit",
      "type": "event"
    },
    {
      "anonymous": false,
      "inputs": [
        {
          "indexed": true,
          "internalType": "address",
          "name": "winner",
          "type": "address"
        },
        {
          "indexed": true,
          "internalType": "address",
          "name": "loser",
          "type": "address"
        },
        {
          "indexed": true,
          "internalType": "uint256",
          "name": "matchId",
          "type": "uint256"
        }
      ],
      "name": "End",
      "type": "event"
    },
    {
      "anonymous": false,
      "inputs": [
        {
          "indexed": true,
          "internalType": "bytes32",
          "name": "role",
          "type": "bytes32"
        },
        {
          "indexed": true,
          "internalType": "bytes32",
          "name": "previousAdminRole",
          "type": "bytes32"
        },
        {
          "indexed": true,
          "internalType": "bytes32",
          "name": "newAdminRole",
          "type": "bytes32"
        }
      ],
      "name": "RoleAdminChanged",
      "type": "event"
    },
    {
      "anonymous": false,
      "inputs": [
        {
          "indexed": true,
          "internalType": "bytes32",
          "name": "role",
          "type": "bytes32"
        },
        {
          "indexed": true,
          "internalType": "address",
          "name": "account",
          "type": "address"
        },
        {
          "indexed": true,
          "internalType": "address",
          "name": "sender",
          "type": "address"
        }
      ],
      "name": "RoleGranted",
      "type": "event"
    },
    {
      "anonymous": false,
      "inputs": [
        {
          "indexed": true,
          "internalType": "bytes32",
          "name": "role",
          "type": "bytes32"
        },
        {
          "indexed": true,
          "internalType": "address",
          "name": "account",
          "type": "address"
        },
        {
          "indexed": true,
          "internalType": "address",
          "name": "sender",
          "type": "address"
        }
      ],
      "name": "RoleRevoked",
      "type": "event"
    },
    {
      "anonymous": false,
      "inputs": [
        {
          "indexed": true,
          "internalType": "address",
          "name": "player1",
          "type": "address"
        },
        {
          "indexed": true,
          "internalType": "address",
          "name": "player2",
          "type": "address"
        },
        {
          "indexed": true,
          "internalType": "uint256",
          "name": "matchId",
          "type": "uint256"
        }
      ],
      "name": "Start",
      "type": "event"
    },
    {
      "anonymous": false,
      "inputs": [
        {
          "indexed": true,
          "internalType": "address",
          "name": "player",
          "type": "address"
        }
      ],
      "name": "Withdraw",
      "type": "event"
    },
    {
      "inputs": [],
      "name": "DEFAULT_ADMIN_ROLE",
      "outputs": [
        {
          "internalType": "bytes32",
          "name": "",
          "type": "bytes32"
        }
      ],
      "stateMutability": "view",
      "type": "function"
    },
    {
      "inputs": [],
      "name": "SERVER_ROLE",
      "outputs": [
        {
          "internalType": "bytes32",
          "name": "",
          "type": "bytes32"
        }
      ],
      "stateMutability": "view",
      "type": "function"
    },
    {
      "inputs": [],
      "name": "burnAmount",
      "outputs": [
        {
          "internalType": "uint256",
          "name": "",
          "type": "uint256"
        }
      ],
      "stateMutability": "view",
      "type": "function"
    },
    {
      "inputs": [],
      "name": "deposit",
      "outputs": [],
      "stateMutability": "nonpayable",
      "type": "function"
    },
    {
      "inputs": [],
      "name": "depositAmount",
      "outputs": [
        {
          "internalType": "uint256",
          "name": "",
          "type": "uint256"
        }
      ],
      "stateMutability": "view",
      "type": "function"
    },
    {
      "inputs": [
        {
          "internalType": "uint256",
          "name": "",
          "type": "uint256"
        }
      ],
      "name": "deposits",
      "outputs": [
        {
          "internalType": "address",
          "name": "",
          "type": "address"
        }
      ],
      "stateMutability": "view",
      "type": "function"
    },
    {
      "inputs": [],
      "name": "feeAmount",
      "outputs": [
        {
          "internalType": "uint256",
          "name": "",
          "type": "uint256"
        }
      ],
      "stateMutability": "view",
      "type": "function"
    },
    {
      "inputs": [],
      "name": "feeReceiver",
      "outputs": [
        {
          "internalType": "address",
          "name": "",
          "type": "address"
        }
      ],
      "stateMutability": "view",
      "type": "function"
    },
    {
      "inputs": [
        {
          "internalType": "uint256",
          "name": "matchId",
          "type": "uint256"
        },
        {
          "internalType": "address",
          "name": "winner_",
          "type": "address"
        }
      ],
      "name": "finishMatch",
      "outputs": [],
      "stateMutability": "nonpayable",
      "type": "function"
    },
    {
      "inputs": [
        {
          "internalType": "address",
          "name": "player_",
          "type": "address"
        },
        {
          "internalType": "address",
          "name": "winner_",
          "type": "address"
        }
      ],
      "name": "finishMatchByPlayer",
      "outputs": [],
      "stateMutability": "nonpayable",
      "type": "function"
    },
    {
      "inputs": [
        {
          "internalType": "bytes32",
          "name": "role",
          "type": "bytes32"
        }
      ],
      "name": "getRoleAdmin",
      "outputs": [
        {
          "internalType": "bytes32",
          "name": "",
          "type": "bytes32"
        }
      ],
      "stateMutability": "view",
      "type": "function"
    },
    {
      "inputs": [
        {
          "internalType": "bytes32",
          "name": "role",
          "type": "bytes32"
        },
        {
          "internalType": "address",
          "name": "account",
          "type": "address"
        }
      ],
      "name": "grantRole",
      "outputs": [],
      "stateMutability": "nonpayable",
      "type": "function"
    },
    {
      "inputs": [
        {
          "internalType": "address",
          "name": "server_",
          "type": "address"
        }
      ],
      "name": "grantServerRole",
      "outputs": [],
      "stateMutability": "nonpayable",
      "type": "function"
    },
    {
      "inputs": [
        {
          "internalType": "bytes32",
          "name": "role",
          "type": "bytes32"
        },
        {
          "internalType": "address",
          "name": "account",
          "type": "address"
        }
      ],
      "name": "hasRole",
      "outputs": [
        {
          "internalType": "bool",
          "name": "",
          "type": "bool"
        }
      ],
      "stateMutability": "view",
      "type": "function"
    },
    {
      "inputs": [
        {
          "internalType": "address",
          "name": "server_",
          "type": "address"
        }
      ],
      "name": "hasServerRole",
      "outputs": [
        {
          "internalType": "bool",
          "name": "",
          "type": "bool"
        }
      ],
      "stateMutability": "view",
      "type": "function"
    },
    {
      "inputs": [],
      "name": "leaderboard",
      "outputs": [
        {
          "internalType": "contract Leaderboard",
          "name": "",
          "type": "address"
        }
      ],
      "stateMutability": "view",
      "type": "function"
    },
    {
      "inputs": [],
      "name": "matchIds",
      "outputs": [
        {
          "internalType": "uint256",
          "name": "",
          "type": "uint256"
        }
      ],
      "stateMutability": "view",
      "type": "function"
    },
    {
      "inputs": [
        {
          "internalType": "uint256",
          "name": "",
          "type": "uint256"
        }
      ],
      "name": "matches",
      "outputs": [
        {
          "internalType": "address",
          "name": "player1",
          "type": "address"
        },
        {
          "internalType": "address",
          "name": "player2",
          "type": "address"
        }
      ],
      "stateMutability": "view",
      "type": "function"
    },
    {
      "inputs": [
        {
          "internalType": "address",
          "name": "",
          "type": "address"
        }
      ],
      "name": "playerDeposits",
      "outputs": [
        {
          "internalType": "uint256",
          "name": "",
          "type": "uint256"
        }
      ],
      "stateMutability": "view",
      "type": "function"
    },
    {
      "inputs": [
        {
          "internalType": "address",
          "name": "",
          "type": "address"
        }
      ],
      "name": "playerMatches",
      "outputs": [
        {
          "internalType": "uint256",
          "name": "",
          "type": "uint256"
        }
      ],
      "stateMutability": "view",
      "type": "function"
    },
    {
      "inputs": [
        {
          "internalType": "bytes32",
          "name": "role",
          "type": "bytes32"
        },
        {
          "internalType": "address",
          "name": "callerConfirmation",
          "type": "address"
        }
      ],
      "name": "renounceRole",
      "outputs": [],
      "stateMutability": "nonpayable",
      "type": "function"
    },
    {
      "inputs": [
        {
          "internalType": "bytes32",
          "name": "role",
          "type": "bytes32"
        },
        {
          "internalType": "address",
          "name": "account",
          "type": "address"
        }
      ],
      "name": "revokeRole",
      "outputs": [],
      "stateMutability": "nonpayable",
      "type": "function"
    },
    {
      "inputs": [
        {
          "internalType": "address",
          "name": "server_",
          "type": "address"
        }
      ],
      "name": "revokeServerRole",
      "outputs": [],
      "stateMutability": "nonpayable",
      "type": "function"
    },
    {
      "inputs": [
        {
          "internalType": "address",
          "name": "feeReceiver_",
          "type": "address"
        }
      ],
      "name": "setFeeReceiver",
      "outputs": [],
      "stateMutability": "nonpayable",
      "type": "function"
    },
    {
      "inputs": [
        {
          "internalType": "address",
          "name": "token_",
          "type": "address"
        },
        {
          "internalType": "uint256",
          "name": "deposit_",
          "type": "uint256"
        },
        {
          "internalType": "uint256",
          "name": "winner_",
          "type": "uint256"
        },
        {
          "internalType": "uint256",
          "name": "burn_",
          "type": "uint256"
        },
        {
          "internalType": "uint256",
          "name": "fee_",
          "type": "uint256"
        }
      ],
      "name": "setGameParams",
      "outputs": [],
      "stateMutability": "nonpayable",
      "type": "function"
    },
    {
      "inputs": [
        {
          "internalType": "address",
          "name": "leaderboard_",
          "type": "address"
        }
      ],
      "name": "setLeaderboard",
      "outputs": [],
      "stateMutability": "nonpayable",
      "type": "function"
    },
    {
      "inputs": [
        {
          "internalType": "bytes4",
          "name": "interfaceId",
          "type": "bytes4"
        }
      ],
      "name": "supportsInterface",
      "outputs": [
        {
          "internalType": "bool",
          "name": "",
          "type": "bool"
        }
      ],
      "stateMutability": "view",
      "type": "function"
    },
    {
      "inputs": [],
      "name": "token",
      "outputs": [
        {
          "internalType": "contract IERC20",
          "name": "",
          "type": "address"
        }
      ],
      "stateMutability": "view",
      "type": "function"
    },
    {
      "inputs": [],
      "name": "winnerAmount",
      "outputs": [
        {
          "internalType": "uint256",
          "name": "",
          "type": "uint256"
        }
      ],
      "stateMutability": "view",
      "type": "function"
    },
    {
      "inputs": [],
      "name": "withdraw",
      "outputs": [],
      "stateMutability": "nonpayable",
      "type": "function"
    }
  ],
  "bytecode": "0x608060405234801561001057600080fd5b5060405162001630380380620016308339810160408190526100319161010e565b61003c600033610062565b50600680546001600160a01b0319166001600160a01b039290921691909117905561013e565b6000828152602081815260408083206001600160a01b038516845290915281205460ff16610104576000838152602081815260408083206001600160a01b03861684529091529020805460ff191660011790556100bc3390565b6001600160a01b0316826001600160a01b0316847f2f8788117e7eff1d82e926ec794901d17c78024a50270940304540a733656f0d60405160405180910390a4506001610108565b5060005b92915050565b60006020828403121561012057600080fd5b81516001600160a01b038116811461013757600080fd5b9392505050565b6114e2806200014e6000396000f3fe608060405234801561001057600080fd5b50600436106101da5760003560e01c806399d02d9611610104578063d547741f116100a2578063eb56b74011610071578063eb56b74014610424578063efdcd97414610437578063f1a2de721461044a578063fc0c546a1461045d57600080fd5b8063d547741f146103d5578063dad05d6e146103e8578063df6ffa87146103fb578063e388eeb11461041b57600080fd5b8063b3f00674116100de578063b3f006741461039e578063cae9ab7a146103b1578063d0e30db0146103ba578063d32d22ff146103c257600080fd5b806399d02d961461034b578063a217fddf1461036b578063b02c43d01461037357600080fd5b80633ccfd60b1161017c5780636028e6611161014b5780636028e6611461030957806369e154041461031c578063751947ce1461032557806391d148541461033857600080fd5b80633ccfd60b1461029b578063419759f5146102a35780634768d4ef146102ac578063486a7e6b1461030057600080fd5b80632f2ff15d116101b85780632f2ff15d1461024d57806336568abe146102625780633717dd78146102755780633cb949161461028857600080fd5b806301ffc9a7146101df57806318cf283414610207578063248a9ca31461022a575b600080fd5b6101f26101ed3660046112d0565b610470565b60405190151581526020015b60405180910390f35b61021c60008051602061148d83398151915281565b6040519081526020016101fe565b61021c610238366004611301565b60009081526020819052604090206001015490565b61026061025b366004611336565b6104a7565b005b610260610270366004611336565b6104d2565b610260610283366004611362565b61050a565b6101f261029636600461138c565b61059e565b6102606105b8565b61021c60025481565b6102e06102ba366004611301565b600b60205260009081526040902080546001909101546001600160a01b03918216911682565b604080516001600160a01b039384168152929091166020830152016101fe565b61021c60045481565b6102606103173660046113a7565b610859565b61021c60055481565b610260610333366004611336565b610903565b6101f2610346366004611336565b610c25565b61021c61035936600461138c565b600a6020526000908152604090205481565b61021c600081565b610386610381366004611301565b610c4e565b6040516001600160a01b0390911681526020016101fe565b600654610386906001600160a01b031681565b61021c60035481565b610260610c78565b6102606103d036600461138c565b610e71565b6102606103e3366004611336565b610ed8565b6102606103f636600461138c565b610efd565b61021c61040936600461138c565b60096020526000908152604090205481565b61021c600c5481565b600754610386906001600160a01b031681565b61026061044536600461138c565b610f20565b61026061045836600461138c565b610f4e565b600154610386906001600160a01b031681565b60006001600160e01b03198216637965db0b60e01b14806104a157506301ffc9a760e01b6001600160e01b03198316145b92915050565b6000828152602081905260409020600101546104c281610f7c565b6104cc8383610f89565b50505050565b6001600160a01b03811633146104fb5760405163334bd91960e11b815260040160405180910390fd5b610505828261101b565b505050565b60008051602061148d83398151915261052281610f7c565b6001600160a01b0383166000908152600a602052604090205461057b5760405162461bcd60e51b815260206004820152600c60248201526b3737ba103090383630bcb2b960a11b60448201526064015b60405180910390fd5b6001600160a01b0383166000908152600a60205260409020546105059083610903565b60006104a160008051602061148d83398151915283610c25565b6105c133611086565b6105fa5760405162461bcd60e51b815260206004820152600a6024820152691b9bc819195c1bdcda5d60b21b6044820152606401610572565b336000908152600a6020526040902054156106495760405162461bcd60e51b815260206004820152600f60248201526e616c726561647920706c6179696e6760881b6044820152606401610572565b336000818152600960205260409081902054600154600254925163a9059cbb60e01b815260048101949094526024840192909252916001600160a01b039091169063a9059cbb906044016020604051808303816000875af11580156106b2573d6000803e3d6000fd5b505050506040513d601f19601f820116820180604052508101906106d691906113e9565b6107225760405162461bcd60e51b815260206004820152601960248201527f6661696c656420746f207472616e7366657220746f6b656e73000000000000006044820152606401610572565b600854819061073390600190611421565b0361077057600880548061074957610749611434565b600082815260209020810160001990810180546001600160a01b031916905501905561081e565b6008805461078090600190611421565b815481106107905761079061144a565b600091825260209091200154600880546001600160a01b0390921691839081106107bc576107bc61144a565b9060005260206000200160006101000a8154816001600160a01b0302191690836001600160a01b0316021790555060088054806107fb576107fb611434565b600082815260209020810160001990810180546001600160a01b03191690550190555b33600081815260096020526040808220829055517ff67611512e0a2d90c96fd3f08dca4971bc45fba9dc679eabe839a32abbe58a8e9190a250565b600061086481610f7c565b6001600160a01b0386161580159061087c5750600085115b80156108885750600084115b80156108945750600083115b80156108a05750600082115b6108d05760405162461bcd60e51b81526020600482015260016024820152600360fc1b6044820152606401610572565b50600180546001600160a01b0319166001600160a01b039690961695909517909455600292909255600355600455600555565b60008051602061148d83398151915261091b81610f7c565b6000838152600b6020526040902080546001600160a01b0384811691161480610953575060018101546001600160a01b038481169116145b6109905760405162461bcd60e51b815260206004820152600e60248201526d34b73b30b634b2103bb4b73732b960911b6044820152606401610572565b80546001600160a01b039081169084168190036109b7575060018101546001600160a01b03165b81546001600160a01b039081166000908152600a6020908152604080832083905560018087015485168452818420849055898452600b835281842080546001600160a01b03199081168255908201805490911690555460048054835163a9059cbb60e01b81529182018690526024820152915194169363a9059cbb936044808401949383900301908290875af1158015610a55573d6000803e3d6000fd5b505050506040513d601f19601f82011682018060405250810190610a7991906113e9565b5060015460035460405163a9059cbb60e01b81526001600160a01b038781166004830152602482019290925291169063a9059cbb906044016020604051808303816000875af1158015610ad0573d6000803e3d6000fd5b505050506040513d601f19601f82011682018060405250810190610af491906113e9565b5060015460065460055460405163a9059cbb60e01b81526001600160a01b039283166004820152602481019190915291169063a9059cbb906044016020604051808303816000875af1158015610b4e573d6000803e3d6000fd5b505050506040513d601f19601f82011682018060405250810190610b7291906113e9565b50600754600354604051633d4b131760e21b815260048101919091526001600160a01b0386811660248301529091169063f52c4c5c90604401600060405180830381600087803b158015610bc557600080fd5b505af1158015610bd9573d6000803e3d6000fd5b5050505084816001600160a01b0316856001600160a01b03167fe70b26884c1418183ab014860acbd1005ed33b407836c56b8547e527f12fa9bb60405160405180910390a45050505050565b6000918252602082815260408084206001600160a01b0393909316845291905290205460ff1690565b60088181548110610c5e57600080fd5b6000918252602090912001546001600160a01b0316905081565b610c8133611086565b15610cc25760405162461bcd60e51b8152602060048201526011602482015270185b1c9958591e4819195c1bdcda5d1959607a1b6044820152606401610572565b336000908152600a602052604090205415610d115760405162461bcd60e51b815260206004820152600f60248201526e616c726561647920706c6179696e6760881b6044820152606401610572565b6001546002546040516323b872dd60e01b815233600482015230602482015260448101919091526001600160a01b03909116906323b872dd906064016020604051808303816000875af1158015610d6c573d6000803e3d6000fd5b505050506040513d601f19601f82011682018060405250810190610d9091906113e9565b610ddc5760405162461bcd60e51b815260206004820152601760248201527f6661696c656420746f206f627461696e20746f6b656e730000000000000000006044820152606401610572565b600880546001818101835560008390527ff3f7a9fe364faab93b216da50a3214154f22a0a2b415b23a84c8169e8b636ee390910180546001600160a01b031916331790559054610e2c9190611421565b33600090815260096020526040902055610e44611103565b60405133907f8ce0bd46ec50cf39f0d0ea8686a686eb226af5796dcda4231b26fb84b5ef123490600090a2565b6000610e7c81610f7c565b610e858261059e565b610ec05760405162461bcd60e51b815260206004820152600c60248201526b3737ba10309039b2b93b32b960a11b6044820152606401610572565b61050560008051602061148d8339815191528361101b565b600082815260208190526040902060010154610ef381610f7c565b6104cc838361101b565b6000610f0881610f7c565b61050560008051602061148d83398151915283610f89565b6000610f2b81610f7c565b50600680546001600160a01b0319166001600160a01b0392909216919091179055565b6000610f5981610f7c565b50600780546001600160a01b0319166001600160a01b0392909216919091179055565b610f868133611293565b50565b6000610f958383610c25565b611013576000838152602081815260408083206001600160a01b03861684529091529020805460ff19166001179055610fcb3390565b6001600160a01b0316826001600160a01b0316847f2f8788117e7eff1d82e926ec794901d17c78024a50270940304540a733656f0d60405160405180910390a45060016104a1565b5060006104a1565b60006110278383610c25565b15611013576000838152602081815260408083206001600160a01b0386168085529252808320805460ff1916905551339286917ff6391f5c32d9c69d2a47ea670b442974b53935d1edc7fd64eb21e047a839171b9190a45060016104a1565b6001600160a01b03811660009081526009602052604081205460085415806110b957506110b4816001611460565b600854105b156110c75750600092915050565b60006001600160a01b0316600882815481106110e5576110e561144a565b6000918252602090912001546001600160a01b031614159392505050565b60085460021461110f57565b600c805490600061111f83611473565b91905055506000600860008154811061113a5761113a61144a565b6000918252602082200154600880546001600160a01b0390921693509060019081106111685761116861144a565b6000918252602080832090910154600c80548452600b8352604080852080546001600160a01b038981166001600160a01b03199283168117909355845488528388206001018054909216951694851790559154828652600a8552818620819055838652818620559084526009909252818320839055808352908220919091556008805491925090806111fc576111fc611434565b600082815260209020810160001990810180546001600160a01b0319169055019055600880548061122f5761122f611434565b600082815260208120820160001990810180546001600160a01b0319169055909101909155600c5460405190916001600160a01b0384811692908616917fdaa62f5dc391112de521eb5e9f1aea5ec7510337948f8b903bcfc40ccdc8c3e291a45050565b61129d8282610c25565b6112cc5760405163e2517d3f60e01b81526001600160a01b038216600482015260248101839052604401610572565b5050565b6000602082840312156112e257600080fd5b81356001600160e01b0319811681146112fa57600080fd5b9392505050565b60006020828403121561131357600080fd5b5035919050565b80356001600160a01b038116811461133157600080fd5b919050565b6000806040838503121561134957600080fd5b823591506113596020840161131a565b90509250929050565b6000806040838503121561137557600080fd5b61137e8361131a565b91506113596020840161131a565b60006020828403121561139e57600080fd5b6112fa8261131a565b600080600080600060a086880312156113bf57600080fd5b6113c88661131a565b97602087013597506040870135966060810135965060800135945092505050565b6000602082840312156113fb57600080fd5b815180151581146112fa57600080fd5b634e487b7160e01b600052601160045260246000fd5b818103818111156104a1576104a161140b565b634e487b7160e01b600052603160045260246000fd5b634e487b7160e01b600052603260045260246000fd5b808201808211156104a1576104a161140b565b6000600182016114855761148561140b565b506001019056fecaa7f6290f33308266ee2988386694ac9bc3612b5df272e3502129925a64f997a2646970667358221220957489e4d99496556f913e0244eab04042d5b9eaea49b740462ad73342e4548464736f6c63430008180033",
  "linkReferences": {},
  "deployedLinkReferences": {}
}